:1000000000800020BD010000755800002D58000040
:100010002D5800002D5800002D5800002D580000CC
:100020002D5800002D5800002D5800007558000074
:10003000755800002D580000A56E0000A96E000044
:10004000755800007558000075580000755800007C
:10005000755800007558000075580000755800006C
:10006000755800007558000075580000755800005C
:10007000755800007558000075580000755800004C
:10008000755800007558000075580000755800003C
:10009000755800007558000075580000755800002C
:1000A0005944000065440000755800007558000070
:1000B000755800007558000075580000755800000C
:1000C00075580000755800007558000075580000FC
:1000D00075580000755800007558000075580000EC
:1000E00075580000755800007558000075580000DC
:1000F00075580000755800007558000075580000CC
:1001000075580000755800007558000075580000BB
:1001100075580000755800007558000075580000AB
:10012000755800007558000075580000755800009B
:10013000755800007558000075580000755800008B
:10014000755800007558000075580000755800007B
:10015000755800007558000075580000755800006B
:100160000D560000FD5E0000755800007558000037
:10017000755800007558000075580000755800004B
:10018000755800007558000075580000755800003B
:10019000755800007558000075580000755800002B
:1001A000755800007558000075580000755800001B
:1001B000755800007558000075580000564B4CF2F9
:1001C000205210B51A804DF628121A8000BF00BFC9
:1001D00005F054FB514B4FF010621A60504A9A6080
:1001E000504ADA60504A136813F4807304D14F49BF
:1001F0000B604FF4A85313604D4B1A78110703D5C9
:100200001A7842F008021A704A4B4B492A221A7097
:100210004A4A4B4B8B4204D252F8040F43F8040B6A
:10022000F8E7484B484900228B4202D243F8042B9E
:10023000FAE74649464A002352F8230041F82300D2
:1002400001336F2BF8D1434B434A802103F8011B44
:100250009342FBD1414B3D4A1A60414B8A221A70AE
:10026000A3F5805324225A70A0221A709A7992071B
:10027000FCD59A79D406FCD43A4A937903F00C035E
:10028000082B384BF9D105221A7143225A719A79F9
:100290009006FCD5334A9179324B4906FBD5324A58
:1002A0004FF0817111600521516020221A709A79F6
:1002B00002F00C020C2AFAD12C4B2D4A1A602D4B5D
:1002C0002D4A1A6000225A60072243F8042C2B4A58
:1002D000C3F80C2D62B605F0C7FC144B1B68DA0797
:1002E00005D5274805F02EFC264B274A1A60274BD8
:1002F0001B785B0609D5234C234B22689A4204D114
:100300001F4805F01FFC0023236009F04BFB05F09C
:10031000BBFA06F019FFFEE70E20054030800440CE
:10032000823F04000100002B10D0034014D0034092
:1003300002D0074000E00740CC94FF1F2CA800002B
:100340002087FF1FCC94FF1FA49CFF1F0082FF1F6C
:100350000000000000E400E05FE400E008ED00E0E1
:1003600000500640004006404480044004800440A1
:10037000C010050014E000E03F190100000020203B
:10038000101B505F1CE00340A5C3945A00F00740C7
:10039000FFFFFFFFFFFFFFFFFFFFFFFFFFFFFFFF6D
:1003A000FFFFFFFFFFFFFFFFFFFFFFFFFFFFFFFF5D
:1003B000FFFFFFFFFFFFFFFFFFFFFFFFFFFFFFFF4D
:1003C000FFFFFFFFFFFFFFFFFFFFFFFFFFFFFFFF3D
:1003D000FFFFFFFFFFFFFFFFFFFFFFFFFFFFFFFF2D
:1003E000FFFFFFFFFFFFFFFFFFFFFFFFFFFFFFFF1D
:1003F000FFFFFFFFFFFFFFFFFFFFFFFFFFFFFFFF0D
:10040000FFFFFFFFFFFFFFFFFFFFFFFFDEF9FFFF23
:1004100010B5054C237833B9044B13B10448AFF33E
:1004200000800123237010BDCC94FF1F000000004A
:1004300028A80000084B10B51BB108490848AFF3C5
:1004400000800848036803B910BD074B002BFBD0A0
:10045000BDE81040184700BF00000000D094FF1F07
:1004600028A80000CC94FF1F000000002DE9F04FE9
:10047000DFF800918BB0D9F800400794BDF85060C8
:1004800004900591DDF81CA00192002A6ED01F4651
:100490001F2A4FEA40034FF00008C8BF2022DBB2FA
:1004A000334D0392029344464FF0010B9DF8083000
:1004B00005992F4885F83B3085F85EB085F85DB02A
:1004C00003F090FC01212A4803F02EFE019B0499C1
:1004D000274885F85EB0C8EB03021F2A9DF8083054
:1004E00085F83B30D4BFD2B22022012385F85DB01D
:1004F00003F0A4FE95F8392095F8383093420AD1DC
:100500001BE0FF220A7095F8392095F83830013445
:100510009A4264B211D039193EB1D9F8000008905E
:100520000898CAEB0000B04207D29342E9D2EA1819
:100530000133127E85F83830E4E7039B9844019B31
:100540005FFA88F84345B1D866B1D9F8003009930D
:10055000099BCAEB030AB24504D3019B9C42B8BF76
:100560004FF0FF3420460BB0BDE8F08F019CEBE765
:10057000D889FF1F349BFF1F30B585B01D46BDF8DD
:10058000244000940DF10F0314460122FFF76EFF83
:1005900060B10123621BAB400132013B9DF80F109B
:1005A00093400B4043FA02F2089B1A7005B030BD2D
:1005B0002DE9F04FDFF84CA18BB0DAF8004007943A
:1005C0001E465300BDF85070049091460591DDF829
:1005D0001CB00093002A00F090801F2BD4BF194656
:1005E000202142004FEA49034FF00008C9B2D2B2BD
:1005F000DBB2434D01910292039344469DF80830CB
:10060000059985F83B303E484FF0010385F85E3090
:1006100085F85D3003F0E6FB0121394803F084FDE5
:100620009DF808E0039A85F83BE001234FF0010EA6
:100630000499334885F85EE085F85DE003F0FEFD3F
:1006400095F8392095F83830934224D04C45B8BFFE
:10065000012120DA3FB1DAF8000008900898CBEBCE
:100660000000B84217D291B39A4220B23FD905EBAD
:10067000030E5A1C9EF8183085F838201B0226F805
:10068000103095F8392095F838309A4281F0010100
:1006900001D04C45DEDB0121194803F045FD019BEB
:1006A0009844009B5FFA88F89845A7DB5FB1DAF8B9
:1006B00000300993099BCBEB030BBB4503D34C459F
:1006C000B8BF4FF0FF3420460BB0BDE8F08F9A4220
:1006D00010D9EA180133107E85F8383022B201347F
:1006E00036F81230034326F8123064B2C9E74FF4EB
:1006F0007F43C4E74FF0FF30F0E7009CD6E700BF30
:10070000D889FF1F349BFF1FF8B5114E47001546CF
:10071000304601221C4686F83B7086F85E2086F83B
:100720005D2003F05FFB55B1013D54FA85F5013CB6
:1007300014F8011F064803F055FBAC42F8D1012123
:10074000034803F0F1FCB0FA80F04009F8BD00BFA7
:10075000D889FF1FF0B5124C85B0248800941F463D
:1007600014460DF10E03012205460E46FFF77EFEEC
:1007700001229DF80E3002FA04F46FB923EA040452
:1007800004AB314603F8014D284601228DF80E4096
:10079000FFF7BAFF05B0F0BD1C43E4B2F0E700BFBD
:1007A0000088FF1F2DE9F041164D84B02D8800957B
:1007B00090461F4601220DF10E039DF82840054684
:1007C0000E46FFF753FED0B1C7EB08080122904454
:1007D00002FA07F704FA08F17B1E9DF80E4003FAAF
:1007E00008F7C9B2394024EA070404AB0C4303F804
:1007F000014D314628468DF80E40FFF785FF04B0C5
:10080000BDE8F0810088FF1FF8B5144E470015467B
:10081000304601221C4686F83B7086F85E2086F83A
:100820005D2003F0DFFA85B1013DEDB204EB450533
:10083000023C34F8021F0948090A03F0D3FA217870
:10084000064803F0CFFAAC42F3D10121034803F08C
:100850006BFCB0FA80F04009F8BD00BFD889FF1FDB
:100860000170704730B583B004460123002500783D
:100870000093022203236B21FFF794FF2078009559
:10088000022304221B21FFF78DFF2078009502230D
:1008900004221C21FFF786FF20782B4606226B21BD
:1008A00003B0BDE83040FFF755BF00BF00B583B0CF
:1008B00000780091022304221B21FFF773FF03B08D
:1008C0005DF804FB00B583B0007800910223042298
:1008D0001C21FFF767FF03B05DF804FB2DE9F0472B
:1008E0001A4D82B004462D88007800958A469146BC
:1008F00098460E22631C3B210A9F0B9E0C9DFFF71E
:10090000B5FD6278A37843EA0223AAF80030E278C2
:10091000237943EA0223A9F800306279A37943EAF4
:100920000223A8F80030627AA37A43EA02233B80CC
:10093000E27A237B43EA02233380627BA37B43EA90
:1009400002232B8002B0BDE8F08700BF0088FF1FA4
:100950002DE9F04F93B03B2905939DF87030049238
:100960008B4680460B9300F0958113230293C54B71
:100970000793022306933E2006F0B2F9029FDDF8AA
:100980001CA03D4600240DF13C09BAF8003098F84F
:1009900000000093012229460DF13203FFF708FE03
:1009A000BDF93260304608F091FD132F18BF0DAA33
:1009B00006F0010318BF22F814304FF0824108BF3F
:1009C0004FF0814108F0D6FD069B49F82400013420
:1009D0001D44032CEDB2D8D10B9B002B00F0E2801C
:1009E000BBF13B0F0CBFA84B4FF07E530993002384
:1009F0000A930023039308930024029D2746079B34
:100A000098F800001B8800930BEB4401C9B20DF16C
:100A100032030122FFF7CCFDBDF9320008F056FD8C
:100A2000BBF13B0F824600F0E380002150460AF103
:100A3000004608F05BFF002800F0E380384608F02D
:100A400041FD514608F08EFC08F080FF04990746EE
:100A5000304608F08FFD8D498246304608F08AFD09
:100A6000059908F087FD59F8241008F07BFC029BDB
:100A700049F82400132B0146504600F0A48008F0EA
:100A800071FC4FF0785108F075FD0021064608F022
:100A900023FF002800F0B7804FF07C51304608F06B
:100AA00061FC08F02DFF0DAB20F0010033F814308D
:100AB0001843ADF832000DF132030122294698F8AF
:100AC00000001444FFF7A0FE069B032C1D44EDB26A
:100AD00095D1039B632B00F09E80384608F0F2FC12
:100AE000099908F047FD6A4908F0E2FE18B1089B31
:100AF00001331BB20893632F05D8039B0A2B02DD39
:100B0000089B092B09DC039B01331C46012003933E
:100B100005F05AF8642C7FF46FAF2E2006F0E0F851
:100B200004984FF07D5108F025FD4FF07D51049061
:100B3000059808F01FFD029F069D05903E46002483
:100B4000132F4FF0785178D059F8240008F012FD97
:100B50000021824608F0C0FE4FF07C51002800F0D2
:100B60008180504608F0FEFB08F0CAFE0DAB20F075
:100B7000010033F814300343ADF83230012231461E
:100B800014440DF1320398F80000FFF73DFE2E44A7
:100B9000032CF6B2D4D10A9B0B9A01339A420A93E2
:100BA0007FF427AF012302226A2198F80000FFF7A3
:100BB000D1FD98F80000012303226A21FFF7CAFD46
:100BC00013B0BDE8F08F08F0CDFB4FF07A5108F07C
:100BD000D1FC0021064608F07FFE30B34FF07C5177
:100BE000304608F0BFFB08F08BFEADF8320062E73C
:100BF000022C7FF41AAF4FF08D4108F0B1FB824612
:100C000013E7B2461AE74FF07C51304608F0A8FBD4
:100C100008F076FE47E7B7F57A7F7FF65EAF2A20C9
:100C200006F05EF80023039357E74FF07C513046FF
:100C300008F096FB08F064FED7E74FF07A5159F8B8
:100C4000240008F097FC0021824608F045FE4FF092
:100C50007C5178B1504608F085FB08F051FEADF8A4
:100C600032008BE74FF07C51504608F079FB08F0DA
:100C700047FE7BE74FF07C51504608F071FB08F0CF
:100C80003FFEECE70088FF1FCDCC4C3D6F12833A4E
:100C90000000A04003460C4A13F8010B079212888B
:100CA00000930623019275211A46FFF765FC98F818
:100CB0000130372B04D977230293032306935AE696
:100CC0000623029355E600BF0088FF1FFFFFFFFFCA
:100CD0002DE970434B1E0C466FF012021A4902FBBD
:100CE00003F381FB0312DB17C3EB620382B00546FB
:100CF000C3F1500008F0EAFB144908F03BFC07F090
:100D00008FFF0022124B8046894607F0DDFF08F076
:100D1000D3FA0BA3D3E9002306464946404607F021
:100D2000D3FF08F0C9FA009402463346284643210F
:100D3000FFF70EFE02B0BDE8708300BFAFF3008086
:100D4000000000403333D33F676666660AD7233C12
:100D500000805640F0B54B1E0C466FF01202114950
:100D600002FB03F381FB0312DB17C3EB620383B0C7
:100D70000546C3F1500008F0A9FB0B4908F0FAFB47
:100D80000A49074608F0F6FB09490646384608F0C6
:100D9000F1FB00940246334628463B21FFF7D8FD7D
:100DA00003B0F0BD676666660AD7233C0000A04129
:100DB0009A99993E036810B504461BB153F8040C88
:100DC00008F020FE204610BD036810B504461BB194
:100DD00053F8040C08F016FE204610BD036810B549
:100DE00004461BB153F8040C08F00CFE204610BD5D
:100DF00038B5064CA4F16C0554F80C3D1BB153F802
:100E0000040C08F0FFFDAC42F6D138BD0098FF1F7E
:100E100038B5064CA4F16C0554F80C3D1BB153F8E1
:100E2000040C08F0EFFDAC42F6D138BD6C98FF1F02
:100E300030B4164A136882B0A3B1154A0468126828
:100E4000520994421ADD002A02601BDD1201B3FB35
:100E5000F2F30A689A4202DD23F001030B6002B04C
:100E600030BC70470A4C4FF400554FF480131360A8
:100E7000256004684FF48072944205DC2246002A03
:100E80000260E3DC0023E4E70260DFE7E894FF1F91
:100E9000EC94FF1F38B50446103008F0ABFD054652
:100EA00030B120F00F031033184643F8045C38BD0E
:100EB0000CB9204638BD4FF0FF3006F04DF92846FA
:100EC00038BD00BF2DE9F04FAB48DFF8C4B2DFF802
:100ED000BCA2DFF8C092DFF838838BB002F096FF37
:100EE000A648FFF7BFFC0021A448FFF7DFFC022162
:100EF000A248FFF7E7FC0F21A048FFF7E9FE3221E7
:100F00009E48FFF727FF01219D4805F065FE00265A
:100F10000A23374634460593FA259A4B01939A4B98
:100F200000939A4A9A4B9B49CDF808809348FFF763
:100F3000D5FCB9F90010BBF90020BAF900300C4417
:100F400017441E44013D079408970996E5D10121F5
:100F5000914805F041FE4FF4FA7004F035FE059B10
:100F6000013B0593D8D18D488D4F05F0BBFF07ADF0
:100F70000AAE87FB0431E417C4EBA12145F8041B3A
:100F8000864805F0FFFF854805F0ACFFAE4201D072
:100F90002C68EEE7834B09991B68834A079D089CE0
:100FA0008248156003EBD373A1EB63034FF4165132
:100FB0009360546004F06CF97D4B7E481968DFF84B
:100FC0005492DFF854827C4E7C4D7D4CDFF84CB25D
:100FD00004F0D4FA7B4B7C48196804F0CFFA7B4BC1
:100FE0000121187804F0C6FD794B0121187804F02E
:100FF000C1FD784B0121187804F0BCFD764B01212E
:10100000187804F0B7FD754BDFF814C2DFF814E26E
:1010100073487449002258F8047F59F804AF5F629E
:101020005EF8047FC3F800A0DF665CF804AF55F8F3
:10103000047FC3F848A0C3F8B47056F804AF50F862
:10104000047FC3F890A0C3F8FC7054F804AF5BF8B9
:101050002270C3F8D8A0013251F804AFC3F820A120
:10106000092AC3F8447103F10403D4D15E4C5F4DE7
:101070002078012104F07EFD20785D4C002104F0F1
:1010800073FD5C4B2268196800230B604B608B601A
:10109000A068CB6001280B614B61156000F0C48033
:1010A0006168554C42F82140022800F00D81534CF4
:1010B00042F83140032800F0BD800324661C04FB85
:1010C00001F41C440025B04242F8245000F0BC80DA
:1010D000751C06FB01F61E440024A84242F8264077
:1010E00000F0BC806C1C05FB01F51D440026A042ED
:1010F00042F8256000F0BC80651C04FB01F41C4430
:101100000026A84242F8246000F0BC806C1C05FB5D
:1011100001F51D440026A04242F8256000F0BC8085
:10112000651C04FB01F41C440026A84242F824601C
:1011300000F0BC806C1C05FB01F51D442B4E42F8F1
:101140002560A04200F0BC80651C04FB01F4A842AD
:101150001C4412BF6943013300211944284E42F850
:1011600024602848284C294B42F821300023236072
:1011700003600BB0BDE8F08FD889FF1F4C97FF1FAD
:1011800008A300009498FF1F9098FF1F7498FF1FFA
:101190007298FF1F7098FF1F0CA30000D88BFF1FD1
:1011A000AD8BDB68B089FF1F6C97FF1FFC94FF1F9E
:1011B0000C88FF1F3897FF1F1C89FF1F4089FF1FE6
:1011C0001888FF1F7488FF1F4097FF1F7C88FF1F30
:1011D0000888FF1F8088FF1FC489FF1FD095FF1F4D
:1011E0006489FF1F8889FF1F6888FF1FB280C93F7D
:1011F0007897FF1FF094FF1FF645ED40ACADA83F78
:10120000807D02C1A095FF1F9895FF1F8A02D1BF64
:101210009298FF1F8C88FF1FB088FF1F4488FF1F14
:10122000D488FF1FF888FF1F2A4B2B4D61689560FB
:10123000536002230133002401261C440025B042E0
:1012400042F824507FF444AF0133002601251E44A8
:101250000024A84242F826407FF444AF0133002521
:1012600001241D440026A04242F825607FF444AFCB
:101270000133002401251C440026A84242F82460C2
:101280007FF444AF0133002501241D440026A04211
:1012900042F825607FF444AF0133002401251C444B
:1012A0000026A84242F824607FF444AF01330025B1
:1012B00001241D44094E42F82560A0427FF444AF4A
:1012C00001330024012542E7034B536001242346E8
:1012D000F4E600BFF645ED40ACADA83FB280C93F93
:1012E0002DE9F04F83B0904699468A4607F086FC78
:1012F00004460D464046494606F06EF806465046FE
:101300000F4607F07BFC82468B464046494606F076
:10131000ADF83246804689463B462046294607F0CE
:10132000D3FC4246CDE900014B465046594607F0F2
:10133000CBFC02460B46DDE9000107F013FB5246E9
:10134000CDE900015B463046394607F0BDFC424618
:1013500006460F464B462046294607F0B5FC444C4E
:101360000C9D02460B463046394607F0F9FAD4F890
:101370000080064640460F4607F040FC02460B46FA
:10138000DDE9000107F0ECFA00224FF080438246CD
:101390008B4607F029FF002853D008F1020007F020
:1013A0002DFCCDE90001D4F80480404607F026FC6E
:1013B00002460B463046394607F0D2FA00224FF07B
:1013C000804382468B4607F00FFF002849D15046E4
:1013D000594600224FF0404307F0E8FE28B1A8F13B
:1013E000020007F00BFC06460F46DDE9000107F09E
:1013F0001BFF39462060304607F016FF1D4B60602A
:10140000186807F0FBFB32463B4607F0ABFA07F0E3
:101410000BFF0146184804F0B7F8184B186807F09E
:10142000EDFBDDE9002307F09DFA07F0FDFE014624
:10143000134804F0A9F8284603B0BDE8F04F04F0C3
:10144000C3BB5046594600224FF0404307F0AEFE62
:101450000028A8D0A8F1020007F0D0FBCDE90001D8
:10146000A1E708F1020007F0C9FB06460F46BCE7FA
:101470007C98FF1F1088FF1F4097FF1F0488FF1FE5
:101480003897FF1F2DE9F04F87B004920593DDF8E0
:1014900040B0DDF844C06346002BB8BF0CF1030C2C
:1014A0002CF0030CBCF1000F67DD059BCDF808C0E4
:1014B000180104460498CDF840B0814609EB830832
:1014C000DB004FF0000A03934FEA8B03524601936F
:1014D000A446109B002B21DD039C019809EB040618
:1014E00008EB040500EB020E934601EB8203444631
:1014F000484650F8047B41F8227054F8047B5F6042
:1015000056F8047B9F60043255F8047BDF60724517
:1015100003F11003EDD1019B03EB0B02029B0AF1D7
:10152000040A5345E144E044D3DCDDF840B09C4676
:10153000119B63451EDD0598049BDDF8448000FB8C
:101540000CF603EB860687004FEA8B0EBBF1000F0B
:101550000BDD01EB820006EB0E05334653F8044B1E
:1015600040F8044B9D42F9D15A440CF1010CE0457E
:101570003E44EBD107B0BDE8F08F0022D8E700BFB2
:101580002DE9F04F83B00193DDF830E0DDF834A0B1
:101590000AEBDA7727F00107002F5BDD18464FF0E2
:1015A000000C6346904686004FEA4E0BBEF1000FDA
:1015B00011DD03EB0B0901EB890501EB83034046C9
:1015C0000092046842685A601C600833AB423044A1
:1015D000F7D1009A4B460CF1020C674508F1080858
:1015E000E4DCC7EB0A00002815DDBEF1000F11DDB9
:1015F00001980EEB0308860001EB830301EB880CD6
:1016000002EB870500202C5843F8044B9C453044DE
:10161000F9D143460137BA4519DD019802EB87023B
:101620008600BEF1000F0DDD0EEB030C01EB8C0507
:1016300001EB83030020145843F8044B9D423044CF
:10164000F9D163460137BA4502F10402E9D103B08A
:10165000BDE8F08F0023C4E72DE9F04FAFB01F9233
:101660002D933A9A3D9B1B91B3F1FF3F08BF134660
:101670003D933E9B3999B3F1FF3F08BF13463E931C
:101680003B9B399A002BB8BF033323F0030302EBD3
:10169000D27222F001021E933A9B1492891A0029F9
:1016A000C8BF0132002BB8BF033323F003030E93EE
:1016B000419B20911D92002B00F0D9851E9B002B91
:1016C00040F3AA84149A3D993F982D9D1F9F0E9B2D
:1016D0001D9E3F9C01FB020005EB80007A002290DA
:1016E000013BD019BF0011979B08419F01334FF078
:1016F000000ECDF870E007EB831E5F0101FB064191
:101700001A973A9C229FCDF864E007EB03130C4430
:101710002C9305EB84032993BE4605EB8103119FAF
:101720002393931925933B1D2B933A9B409A9B003F
:101730002A933E9B1B012693389B811903EB0213CE
:10174000002716932491419B21973A9A03EB0213A9
:1017500027933D9B3F9ADB00179305EBC203289329
:101760003D9B9B0018932A9B002B08DD419B169AFA
:10177000279852F8041B43F8041B8342F9D1149BA9
:10178000002B40F36C821C9A2B98119993005918E6
:1017900003441B981032C318109300EB82030F937D
:1017A000289B139341180023129115930F981199B8
:1017B000139D90F800F095F800F002460A44531883
:1017C00093F800F013F801F00E9B92F800F0002B54
:1017D000AA464FF0000340F338851A460393419B15
:1017E000049203F140090592134601920292139A62
:1017F000079302F1200A0022D34606929A460993E3
:101800005BF8205C59F8407C5BF81C4C59F83C6C48
:101810003946284607F0AEFE059907F0A3FD394684
:101820000590204607F0A6FE079907F09BFD31467C
:101830000790284607F09EFE514607F093FD31467B
:101840000890204607F096FE029959F8387C59F81E
:10185000346C59F8308C07F085FD394602902846E3
:1018600007F088FE039907F07DFD39460A9020466F
:1018700007F080FE049907F075FD31460390284675
:1018800007F078FE019907F06DFD31460190204682
:1018900007F070FE099B5BF8185C59F82CAC59F8FE
:1018A000287C194607F05EFD41460490284607F063
:1018B00061FE05995BF8144C59F8246C07F052FD51
:1018C00041460990204607F055FE079907F04AFD6A
:1018D00051460590284607F04DFE089959F8208C8E
:1018E00007F040FD51460790204607F043FE02995D
:1018F00007F038FD39460290284607F03BFE0A9A69
:10190000114607F02FFD39460B90204607F032FEB6
:10191000039907F027FD31460390284607F02AFE79
:10192000019907F01FFD069B0190043331462046C4
:10193000069307F01FFE04995BF8107C59F81C6CA5
:1019400059F818AC07F00EFD41460490384607F0F0
:1019500011FE099B5BF80C4C59F8145C194607F012
:1019600001FD41460890204607F004FE059907F066
:10197000F9FC31460990384607F0FCFD079907F05D
:10198000F1FC31460A90204607F0F4FD029907F079
:10199000E9FC51460290384607F0ECFD0B9A1146DF
:1019A00007F0E0FC51460B90204607F0E3FD039959
:1019B00007F0D8FC29460C90384607F0DBFD01996A
:1019C00059F810AC59F80C8C59F8087C07F0CAFC8F
:1019D00029460190204607F0CDFD04995BF8085C8C
:1019E00007F0C0FC51460D90284607F0C3FD08994A
:1019F0005BF8044C59F8046C07F0B4FC51460590B0
:101A0000204607F0B7FD099907F0ACFC4146079066
:101A1000284607F0AFFD0A9907F0A4FC414682462C
:101A2000204607F0A7FD029907F09CFC394602907A
:101A3000284607F09FFD0B9907F094FC3946039068
:101A4000204607F097FD0C9907F08CFC3146049076
:101A5000284607F08FFD019A114607F083FC3146B6
:101A60000190204607F086FD0D9B194607F07AFC91
:101A70000E99069A91420BF1200B09F14009034699
:101A80003FF7BDAE139A1A99DDF81CB0199CCDF83A
:101A900018A002EB010A3A9A0E998A4261DD0E9F64
:101AA00010340AF1080A5AF8086C54F8109C07938D
:101AB0004946304607F05EFD014605985AF8045C39
:101AC00054F80C8C07F04EFC49460590284607F068
:101AD00051FD0146584607F045FC414683463046D5
:101AE00007F048FD0146069807F03CFC4146069089
:101AF000284607F03FFD0146029854F8089C54F828
:101B0000048C07F02FFC49460290304607F032FD66
:101B10000146039807F026FC49460390284607F043
:101B200029FD0146049807F01DFC4146049030460B
:101B300007F020FD0146019807F014FC4146019092
:101B4000284607F017FD079B0146184607F00AFCD8
:101B50003A9A0137BA420AF1080A04F1100403461E
:101B6000A1D105993C98079307F004FD119A0F9BAA
:101B7000129C109FA55854F8124057F8046C014667
:101B800053F8400C1346129AD2F804803A4652F8A1
:101B900003A007F0E7FB079B0F9F194647F8400C8F
:101BA0003C9807F0E7FC119B10990F9751F8131020
:101BB00057F83C7C07F0D6FB069981463C9807F025
:101BC000D9FC314607F0CEFB109E039946F8040C71
:101BD0003C9807F0CFFC294607F0C4FB129E119DEC
:101BE000019970513C9807F0C5FC214607F0BAFBFB
:101BF000594646F815003C9807F0BCFC394607F0FA
:101C0000B1FB0F9A029942F83C0C3C9807F0B2FCE9
:101C1000414607F0A7FB049970603C9807F0AAFCC6
:101C2000514607F09FFB159B179C0F9A10990233A2
:101C3000374615931E46139B48512344139302F1D4
:101C400008030F9307F10803129301F1080341F809
:101C500015901093149B1A46B2423FF7A7AD209BF4
:101C6000002B40F32981229B93F800F00E9B002B60
:101C700040F3F482419B03F14004229B0027BA46C3
:101C8000B846B94603F110054FF0000B55F8106C3B
:101C900054F8401C304607F06DFC494607F062FBE3
:101CA00054F83C1C8146304607F064FC394607F086
:101CB00059FB54F8381C0746304607F05BFC514688
:101CC00007F050FB54F8341C8246304607F052FCB3
:101CD000414607F047FB55F80C6C54F8301C804621
:101CE000304607F047FC494607F03CFB54F82C1CF3
:101CF0008146304607F03EFC394607F033FB54F886
:101D0000281C0746304607F035FC514607F02AFBF1
:101D100054F8241C8246304607F02CFC414607F05C
:101D200021FB55F8086C54F8201C8046304607F01B
:101D300021FC494607F016FB54F81C1C814630462E
:101D400007F018FC394607F00DFB54F8181C07463D
:101D5000304607F00FFC514607F004FB54F8141C02
:101D60008246304607F006FC414607F0FBFA55F87C
:101D7000046C54F8101C8046304607F0FBFB4946C3
:101D800007F0F0FA54F80C1C8146304607F0F2FBDD
:101D9000394607F0E7FA54F8081C0746304607F0C2
:101DA000E9FB514607F0DEFA54F8041C824630463F
:101DB00007F0E0FB414607F0D5FA0E9B0BF1040B50
:101DC0005B4505F11005804604F140043FF75EAF26
:101DD000199CDDF8B0B03A9B0E9A934233DD0E9E0B
:101DE0001034ABF1040B5BF8045F54F8101C284668
:101DF00007F0C0FB0146484607F0B4FA54F80C1C43
:101E00008146284607F0B6FB0146384607F0AAFA95
:101E100054F8081C0746284607F0ACFB014650461C
:101E200007F0A0FA54F8041C8246284607F0A2FBEB
:101E30000146404607F096FA3A9B0136B342804687
:101E400004F11004CFD1149A1C9B3C989E181B9B44
:101E5000394603EB860407F08DFB119D615907F0AD
:101E600081FA514683463C9807F084FB2B46119338
:101E700054F8131007F076FA414607463C9807F0ED
:101E800079FB6519119B55F8131007F06BFA494659
:101E900080463C9807F06EFB01461B9850F82600E0
:101EA00007F060FA119B1B9941F8260044F803B033
:101EB00044F8137045F81380399B1D9A934240F300
:101EC0009C801D9E1F9A249C1B9DDDF8A4A0029659
:101ED000B0181C9A3146134610441144259A9A189A
:101EE000234405EB830305EB800005EB810105EB43
:101EF00082020393239B05900691049201933A9BDF
:101F0000019A002B92F800F04FF0000640F39981FF
:101F1000169BB14603F11004B046374693465BF872
:101F2000045B54F8101C284607F024FB0146304699
:101F300007F018FA54F80C1C0646284607F01AFB5E
:101F40000146484607F00EFA54F8081C8146284618
:101F500007F010FB0146404607F004FA54F8041C51
:101F60008046284607F006FB0146384607F0FAF996
:101F7000DA45074604F11004D1D131463C9807F008
:101F8000F9FA069C0146206807F0ECF92346494619
:101F900043F8040B3C98069307F0ECFA059C0146C5
:101FA000206807F0DFF92346414643F8040B3C98CC
:101FB000059307F0DFFA049C0146206807F0D2F988
:101FC0002346394643F8040B3C98049307F0D2FAB1
:101FD000039C0146206807F0C5F9019A029B1899F5
:101FE00015462246013342F8040B0392399A0293B4
:101FF0000D449A4201958A4481D11C9A1199219BE2
:102000000A441C922699169A0A4416921E9A043380
:102010009A4221933FF7A7AB3B9B1E9A934240F312
:102020000B813E9B1E9C409A3F983F9EDDF8E880C6
:10203000194604FB0123149A3D9901FB02013A9AC7
:102040003D989200154607921D9A00FB026238984F
:1020500000EB830303933E9B2D989B00099300EBB9
:10206000810341990D934B190C9300EB82030A9362
:1020700000EBC6030B931F9B1A46234602FB03F398
:1020800008933D9BDB0005933D9B9B000693B8F1B5
:10209000000F08DD419B039A0C9852F8041B43F88B
:1020A000041B8342F9D1149B002B55DD1B9B089A1E
:1020B00003EB8203049302930B9B01934FF00009FF
:1020C000019AB8F1000F92F800F04FF0000740F3CA
:1020D000B680DDF804B102F10804BA4600255BF8C9
:1020E000046B54F8081C304607F044FA01463846A1
:1020F00007F038F954F8041C0746304607F03AFA5E
:102100000146504607F02EF90135A845824604F1F4
:102110000804E4D151463C9807F02CFA029D696806
:1021200007F020F9394604463C9807F023FA049E4C
:10213000014656F8290007F015F9019B059A46F863
:1021400029001344019305F108030293149B6C606A
:1021500009F102094B45B3DC209B002B27DD0D9ACA
:10216000B8F1000F92F800F04FF0000510DD419E2D
:10217000171F002456F8041B57F8040F07F0FAF94C
:102180000146284607F0EEF80134A0450546F1D196
:10219000089B149A3C9829469C1807F0EBF91B9D64
:1021A000014655F8240007F0DDF845F82400399B76
:1021B0001D9A934231DD1D9B089A0A9E9F181B9A17
:1021C000994602EB8707B8F1000F96F800F04FF040
:1021D000000A11DD079BDDF80CB0F51834465BF8FA
:1021E000041B54F8040B07F0C5F90146504607F0EC
:1021F000B9F8A5428246F2D151463C9807F0BAF9A7
:102200000146386807F0AEF8069B47F8040B1E44F9
:10221000399B09F101094B45D5D1039A09991E9BB8
:102220000A4403921F99089A0A4408923B9A013380
:102230009A421E937FF42BAF2FB0BDE8F08FBA46C1
:1022400068E7B146B046374697E6419C049302934F
:102250009B4601930393069305931CE44FF00008FB
:10226000419CDDF888B0C2464746C146B3E5389B7D
:102270003E9AA3EB02134193FFF720BA2DE9F04FEA
:1022800091B000290F930B46B8BF033323F003032B
:10229000002B099181460E9208937BDD1B9B03EB7B
:1022A00043039B000C931B9B1B010B931A9B0493F2
:1022B0000F9B1A010A920E9A0692114601EB8302B5
:1022C000DB000D93002305920793049C1E98216860
:1022D00007F050F91B99009054F821101E9807F050
:1022E00049F91B9B019054F833101E9807F042F9EE
:1022F0000C9B0290E1581E9807F03CF9B9F1000FD1
:10230000039034DD069A0D98059B1C9C02EB000897
:102310001F181E46924600255AF8041B009807F025
:1023200029F9216807F01EF8206056F8041B83463F
:10233000019807F01FF9594607F014F8206058F883
:10234000041B8346029807F015F9594607F00AF86E
:10235000206057F8041B8346039807F00BF9594691
:1023600007F000F80135A94544F8040BD4D1049ACC
:102370000B99079B0A440492069A0A991046059AFB
:10238000084406901046089A043308449A4207937A
:1023900005909ADC089B099A93423ADA089E1B9BA7
:1023A0000F99CDF8089003FB06FA0E9B01FB06F788
:1023B00003EB87078B0001931A9B03EB8A0A1B9B95
:1023C0009B0000931C9B4FF0000803EB89055AF813
:1023D00008101E9807F0CEF8029B002B044610DD73
:1023E000DDF87090BB465BF8041B204607F0C2F88E
:1023F0000146D9F8000006F0B5FF49F8040B4D4539
:10240000F1D1009B9844019B1F44099B01369E42D9
:10241000DDD111B0BDE8F08F2DE9F04F144B144A17
:102420001B68144CB7B00133136003F0A9FB236899
:10243000114AC31A1060114A11481360194604F07A
:10244000A1FD0F4804F04EFD0E4B0B4A1B681568AA
:102450002560082B01F29381DFE813F0F0060307F3
:1024600011082B0814077E079707DA07160000BF2C
:10247000F894FF1FC095FF1FA095FF1F8C95FF1FAD
:10248000D88BFF1F9895FF1FB54BB64A1878B64BEF
:102490001C9200211446179303F066FBB34BB3491B
:1024A0001B68B34A206801330B6001231370B14BE2
:1024B000DFF8EC921E68B04BDFF8E8821F68AF4C83
:1024C00007F004F80546306907F000F8AC4907F05A
:1024D00051F8AC4907F002F9394607F0FFF82946F0
:1024E00007F0FCF88246706806F0F0FFA44907F098
:1024F00041F8A44907F0F2F8394607F0EFF8294609
:1025000007F0ECF8A04B0646186806F0DFFF9C4980
:1025100007F030F89B4907F0E1F8394607F0DEF89C
:10252000294607F0DBF88DE800030C90974B98499B
:1025300002948D4A9748954D954FFEF7CFF9964BEB
:102540001799964A1B6808882D883F8892E80240B0
:1025500003EBD3739268C0EB630313448B4AC5EB60
:102560000E0515808A4AC91B1180179950460B80A9
:1025700006F056FB82468B4604F078FF06F09CFE80
:102580000D90304606F04CFB06460F4604F024FF43
:10259000CDE90E0106F090FE39460A90304604F06F
:1025A00065FF06460F465046594604F015FF0246A1
:1025B0000B4682468B4630463946CDE914AB06F0D1
:1025C00083FB06F079FE39460B90304606F074FE28
:1025D00052465B460746DDE90E0106F075FB06F044
:1025E0006BFE0546B8F9000006F070FF00F10043ED
:1025F000B4F90000119306F069FF00F10043B9F946
:102600000000129306F062FF0A9E0E9707F1004346
:1026100000F10048294630461F4606F0ABFFDDF8C2
:102620002C9004463946484606F0A4FF0146204651
:1026300006F096FE0D9B834603F1004328460021D9
:102640001C46139306F096FF3946824620461097A3
:1026500006F090FF5146CDF858A006F081FE00210B
:1026600082464846CDF82C9006F084FF3146074656
:1026700020460A9606F07EFF0146384606F070FEB8
:1026800000218146504606F075FF2646002104468B
:10269000484606F06FFF0146204606F063FE5946A5
:1026A00006F060FE01464FF07E5007F017F800215B
:1026B0000446304606F05EFF21460646584606F0C0
:1026C00059FF119906F056FF21468346504606F001
:1026D00051FF129906F04EFF594606F043FE21467F
:1026E0008246484606F046FF414606F043FF514603
:1026F00006F038FE16998146384606F031FE21462E
:1027000006F038FFDDF844B0594606F033FF314695
:102710000746284606F024FE214606F02BFFDDF88A
:1027200048A0514606F026FF394606F01BFE0B99DD
:102730000546304606F014FE214606F01BFF4146D2
:1027400006F018FF294606F00DFE002105461098F8
:1027500006F010FF0A9F06460021384624E000BF1D
:102760006888FF1FC889FF1F7498FF1F9895FF1F77
:102770004697FF1FF094FF1F6C98FF1F9298FF1F52
:10278000C3F54840000034438497FF1F7298FF1F31
:102790007098FF1F4C97FF1FB089FF1F6C97FF1F9A
:1027A0009498FF1F9098FF1F06F0E4FE0146304604
:1027B00006F0D6FD214606F0DDFE594606F0DAFEAB
:1027C000002106460E9806F0CDFD214606F0D2FE09
:1027D000514606F0CFFE314606F0C4FD21460646BE
:1027E000384606F0C7FE414606F0C4FE314606F004
:1027F000B9FD764B1B68052B074600F39486744B96
:102800001C68484607F07CF86061284607F078F8B5
:10281000A060342007F0EEF80346002801F00181A3
:1028200020F00F021032154642F8040C00244FF03D
:102830007E532B60DDE91401EC60AC616C60279580
:1028400006F03AFD0D9BEB61139B286128626B61DA
:102850000646AC60342007F0CDF80346002801F0AE
:10286000D98020F00F021032144642F8040C0A9B63
:102870002360109BA3614FF000080E9B26624FF06F
:102880007E59A360C4F80C80C4F80480C4F81C808E
:10289000C4F81480C4F8109034202A9407F0AAF8E1
:1028A0000646002800F0328620F00F0B0BF11003D3
:1028B0000C9843F8046C199306F0B2F906460F46DB
:1028C00004F08AFDCDE91A0106F0F6FC394682468D
:1028D000CBF81000304604F0C9FDCDE9200106F028
:1028E000EBFC199A00F10043D0605360C2F81880E5
:1028F000C2F810A0C2F81C80C2F80880C2F8148088
:10290000C2F82090342007F075F80346002801F043
:102910007A8020F00F021032189242F8040C342012
:1029200007F068F80346002801F0668020F00F02E7
:102930001032139242F8040C139A0021131F203214
:1029400043F8041F9342FBD10023032730A932A888
:102950002D932E932F93309731973297FEF768FA85
:10296000309B0B931E46329B12931946319B01FB01
:1029700006F801FB03F30A46022E4FEA8101149187
:10298000CDF8CC803493359100F305865600B8F12C
:10299000804F06EB020780F00886DDF8B4A0BAF19C
:1029A000000F00F01C8700231F93B7F1804F80F0C9
:1029B000BC862E9B0A93002B00F0368700231E93C3
:1029C000149BB3F1804F80F0A48603E0F894FF1FBE
:1029D000F094FF1F2F9B0C93002B00F037870023F0
:1029E0001D93129B10951E44B30016930B9B0E94DF
:1029F0004FF000094D464FEA830B129B03954B4461
:102A00001193032BD4BFC9EB0309C9F103090323B5
:102A100001930295CDF800900E9A0A9925A8FEF729
:102A200031FD139B109E0D931F4600240B9B0395B5
:102A300003EB0408B8F1030FD4BFC4EB0804C4F1DE
:102A40000304324601940323514624A80295CDF88D
:102A50000090FEF795FD0C9A09924FF07E52049279
:102A600003224FF0FF3303920A9A019400920693D7
:102A70000593394608950795CDF8089053460322EB
:102A800026A84446FEF7E8FD022C5E445F44CDDDF7
:102A90000E9B149ADDF8449013440E93169A109BE3
:102AA000B9F1020F13441093A7DD1D9B1BB153F81E
:102AB000040C06F0A7FF1E9B1BB153F8040C06F094
:102AC000A1FF1F9B1BB153F8040C06F09BFF2D9B2D
:102AD0001BB153F8040C06F095FF2E9B1BB153F865
:102AE000040C06F08FFF2F9B1BB153F8040C06F06B
:102AF00089FF342006F07EFF0246002800F055864C
:102B000020F00F031033119343F8040C11990B1F9D
:102B1000203122930022239143F8042F8B42FBD1D2
:102B20000023032530A932A82D932E932F9330959F
:102B300031953295FEF77CF9309B0B931C46329B06
:102B400012931946319B01FB04F601FB03F30A467D
:102B5000022C4FEA8101149133963493359100F39E
:102B600092855400B6F1804F04EB020580F0948505
:102B7000DDF8B4B0BBF1000F00F0448600231F93D2
:102B8000B5F1804F80F0CB852E9B0A93002B00F08F
:102B9000708600231E93149BB3F1804F80F0B385A1
:102BA0002F9B0C93002B00F0078600231D93129B94
:102BB0001C44A30016930B9B4FF000094FEA830AB5
:102BC000199B0E934D46129B03954B441093032B78
:102BD000D4BFC9EB0309C9F1030903230295CDF85A
:102BE000009001930E9A0A9925A8FEF74BFC119FBD
:102BF0000D9E00240B9B039503EB0408B8F1030F13
:102C0000D4BFC4EB0804C4F1030432460194032387
:102C1000594624A80295CDF80090FEF7B1FC0C9A15
:102C200009924FF07E52049203224FF0FF33039239
:102C30000A9A0194009206930593394608950795E0
:102C4000CDF808905B46032226A84446FEF704FD13
:102C5000022C56445744CDDD0E9B149ADDF840906B
:102C600013440E93169A0D9BB9F1020F13440D9362
:102C7000A9DD1D9B1BB153F8040C06F0C3FE1E9B7F
:102C80001BB153F8040C06F0BDFE1F9B1BB153F89B
:102C9000040C06F0B7FE2D9B1BB153F8040C06F094
:102CA000B1FE2E9B1BB153F8040C06F0ABFE2F9B1C
:102CB0001BB153F8040C06F0A5FE189B229A23982A
:102CC0001D1F2B4652F8041F43F8041F8242F9D1FE
:102CD000119B1BB153F8040C06F094FE139B1BB11F
:102CE00053F8040C06F08EFEBD4BB3F9000006F05D
:102CF000EDFBBC4B0A90B3F9000006F0E7FB179B15
:102D00008146B3F9000006F0E1FB82461C2006F084
:102D100071FE0446002800F03E8520F00F031033BA
:102D20000B9343F8040C0C90189A0B9B02F10807C4
:102D300002F11406A3F1040B002455F8041F0A98AD
:102D400006F018FC57F8041F8046484606F012FCAF
:102D5000414606F007FB56F8041F8046504606F031
:102D600009FC414606F0FEFA0134032C4BF8040F2F
:102D7000E3D10B9A0C981668546806F043FE9A4B00
:102D80001B68052B00F35684984B1D682E68D5F8F8
:102D90000CA01C9B964F1868DFF87C92954C06F0AF
:102DA00095FB8046304606F091FB396806F096FCAC
:102DB000414606F093FCD9F800603060504606F0BA
:102DC00085FB396806F08AFC414606F087FC8A4B91
:102DD000F0601F68686806F079FB394606F07EFCF3
:102DE000414606F07BFC7060286906F06FFB3946AF
:102DF00006F074FC414606F071FC3061A86806F0EC
:102E000065FB394606F06AFCB060686906F05EFB57
:102E1000394606F063FC67687061B7F1804FB846C9
:102E200003D34FF0FF3004F097F9BE0006F1100015
:102E300006F0E0FD0546002800F07D8420F00F0339
:102E400010331E4643F8040C6568DFF8A8A1002D76
:102E5000C0F22884BD4200F091811EB156F8040CE6
:102E600006F0D0FD002D40F0708400263546B046B7
:102E70004FEA880707F1100006F0BCFD002800F0BB
:102E8000EE8520F00F076368F8602268A168D9F822
:102E90000000DFF888E100901037012418460297FF
:102EA000CDF810E003940194FFF7E8F957F8040C0B
:102EB00006F0A8FD002DC0F28781504C6368AB423C
:102EC00000F0AB8123681BB153F8040C06F09AFDA7
:102ED000002D40F08A81256065601EB156F8040C13
:102EE00006F090FD2368454E19685D68084606F0B7
:102EF00041FB29460446284606F03CFB0146204695
:102F000006F030FA05F08CFE04F0F4FA06F0D4F97D
:102F10003B4B1C682146054606F0E8FC002800F003
:102F20004A83D6F80080374ED8F80000294606F0CC
:102F3000D5FB214606F01EFB306029460746D8F82F
:102F4000040006F0CBFB214606F014FB044670603B
:102F5000384605F065FE064620460F4605F060FE41
:102F60003B46804689463246DDE91A0105F0ACFE53
:102F7000DDE920AB04460D4642464B4650465946D5
:102F800005F0A2FE02460B462046294605F0EAFC63
:102F900006F092F91C4C054642464B46DDE91A0103
:102FA000256005F091FE3B468046894632465046F4
:102FB000594605F089FE0B4602464946404605F053
:102FC000CFFC06F079F9114B60601B68043B032BC2
:102FD000074653D80E4B0F4C186806F077FA1FE0DF
:102FE0007098FF1F7298FF1FF894FF1FF094FF1F47
:102FF0006097FF1F7897FF1F6C98FF1FA495FF1F16
:103000007888FF1FAC95FF1FB495FF1F9895FF1F91
:103010008C88FF1F7C98FF1FC895FF1F000080BF92
:10302000B2490646284606F0A5FA314606F0A2FA4D
:10303000AF4906F053FB06F063FCAC490546384641
:1030400006F098FA314606F095FAA94906F046FBD3
:1030500006F056FC23689D42064600F09783A54B78
:10306000186805F0DDFDA44B1B68009302460B4673
:1030700028463146FEF734F984E860009F4BA04DA6
:103080001A682B689A429F4A02DC1378002B5AD0A8
:103090009D4E9E4B31681B689D4CC94303EBC30397
:1030A000A3EB81030133316054F823300021117008
:1030B000002B00F02283974B187802F055FD934BBC
:1030C00032681B6803EBC303A3EB8203023354F89B
:1030D0002330002B00F00B838F4B0021187802F077
:1030E00043FD8A4B32681B6803EBC303A3EB8203E7
:1030F000033354F82330002B00F0F382874B002178
:10310000187802F031FD814B32681B6803EBC30372
:10311000A3EB8203043354F82330002B00F0DB824E
:103120007F4B0021187802F01FFD784B734A1B6813
:1031300012681C9903EBC303096854F8233091FB10
:10314000F3F313442B60189B23B1189B53F8040C22
:1031500006F058FC199B53F8040C06F053FC2A9B0C
:103160001BB153F8040C06F04DFC279B1BB153F820
:10317000040C06F047FC37B0BDE8F08FA84675B1E7
:103180000021334606EB850243F8041B9A42FBD12B
:10319000B8F1804F03D34FF0FF3003F0DDFF002E76
:1031A0003FF466AE94E80C00A168D9F800005D4FCA
:1031B0000090012402961846049703940194FFF7A7
:1031C0005DF8002DBFF679AE4FF0FF30564C03F09E
:1031D000C3FF4FF0FF3003F0BFFF6368AB423FF423
:1031E0007CAE2368002B7FF46FAEB8F1804F03D321
:1031F0004FF0FF3003F0B0FF4FEA880707F11000EF
:1032000006F0F8FB8146002800F0ED8320F00F0364
:1032100010331F4643F8040C2760002D6560424BB5
:103220007FF75BAE1A6806EB8505043A334653F820
:10323000041B42F8041FAB42F9D14EE63B4B1C93F2
:103240001A463B4B10681B6803FB00F39D4215DDDB
:103250002C4A384B1793012313702C4A1360FFF745
:1032600026B9334A344B314912681B6808681C91EF
:10327000134400FB03F39D4200F398832D4B1793F7
:10328000FFF715B92D4D2E4E2B683168294A2D4870
:103290002D4C1792C91A03F075FE01212B4803F03B
:1032A0009BFC206805F0BCFC022702460B460097F9
:1032B000244803F071FE234803F014FE179A2B688C
:1032C0003168B2F90020224D0B449A422B7880F2EB
:1032D000E582002B00F066831E4B186806F0F6F8B6
:1032E0000146206806F03CF82060DAE20000344332
:1032F000C3F54840D089FF1FC089FF1FA095FF1F5D
:10330000BC95FF1F4697FF1F8498FF1F9895FF1FCE
:10331000D095FF1F0888FF1F7C88FF1FC489FF1FEF
:103320008088FF1F000080BFA495FF1FC889FF1F72
:10333000B889FF1F7498FF1FBC89FF1F8488FF1F77
:103340001888FF1FD88BFF1F8C97FF1F1CA300003E
:103350008898FF1F8C95FF1F9A4B9B4A9B491B68BF
:103360001268096813445B1A9D4240F30882984B27
:10337000984A1C931946984B179301231370974A48
:10338000086806231360FFF792B8954A954B1168B9
:103390001B68914A9448954C1792C91A164603F037
:1033A000F1FD0121924803F017FC206805F038FC7C
:1033B000022502460B4600958B4803F0EDFD8A4836
:1033C00003F090FD8B4B0121187802F0CDFBB6F98C
:1033D000000006F07BF8884B884A1968054610689B
:1033E00005F0C0FF0146284606F080FA844D2B7890
:1033F000002800F0A182002B00F0D082814B1868D9
:1034000006F064F80146206805F0AAFF206095E206
:10341000714B1793B3F9000006F058F87A4A7B4BCA
:1034200016681C683146074605F09CFF214606F0E9
:103430003FFA00285ED03146384605F091FF01463C
:10344000204606F035FA002854D06D4B1A78002A31
:1034500000F01C836B4B654C186806F037F801468A
:10346000206805F07DFF2060002106F021FA002889
:1034700040F0DE82564B1C931868FFF718B8644979
:10348000644A654B5248096812681B681C900A44DC
:103490000068134400FB03F39D427FF7EFAE4D4AF3
:1034A0004D4B1793012313704C4A03231360FEF70F
:1034B000FEBF5749574B584A08681968574B444C48
:1034C00012681B681C9401440A442068134400FBE2
:1034D00003F39D427FF7D2AE5149444B09683D4A00
:1034E000196001234649137000220A703B4A0423E5
:1034F0001360C3E6424B1A78002A00F0CC81494998
:103500003A4A0868106000221A70ADE74FF0FF30A9
:1035100003F022FE0C9805F083FB03F05DFF05F03D
:10352000CBFE3060FFDE374B186805F0CFFF3E4B17
:103530001C680646206905F0C9FF494680463046AA
:1035400006F018F80146404605F00CFF06F0D8F9E1
:103550002061606805F0BAFF29468046304606F0D3
:1035600009F80146404605F0FDFE06F0C9F92F4B6B
:103570006060186805F0AAFF39468046304605F0BD
:10358000F9FF0146404605F0EDFE06F0B9F9274B7C
:103590001860FFF736B9129B0B975E0006EB030825
:1035A000B8F1804F4746FFF4F8A94FF0FF3003F021
:1035B000D3FDFFF7F2B932681D4B17681F605468DE
:1035C0005C60C5E48897FF1F7898FF1F9C95FF1FDC
:1035D000C889FF1F4697FF1F7498FF1F9895FF1F0C
:1035E0001888FF1F8488FF1FD88BFF1F8C97FF1F31
:1035F0001CA300006888FF1F8888FF1F6C88FF1FBE
:103600008898FF1F8C95FF1FCC89FF1F5C97FF1FB9
:10361000B889FF1FBC89FF1F7088FF1FB489FF1F77
:103620006897FF1F4897FF1FF094FF1F8497FF1FA5
:10363000AC95FF1FB04B186805F048FFAF4B1D68F5
:103640000746286805F042FF31468046384605F0B7
:1036500091FF0146404605F085FE06F051F92860CD
:103660000646E86805F032FF21468046384605F0F8
:1036700081FF0146404605F075FE06F041F982469D
:10368000E860FFF786BB129B0B955C00E618B6F16D
:10369000804F3546FFF46CAA4FF0FF3003F05CFD1D
:1036A000FFF766BA4FF0FF3003F056FDDAF804502A
:1036B000002DBFF6CFAB4FF0FF3003F04DFDAF4212
:1036C0007FF4CBAB4FF0FF3003F046FD4FF0FF30FF
:1036D00003F042FD5CE58A4B0121187802F044FAC0
:1036E00023E5884B0121187802F03EFA0BE5864B62
:1036F0000121187802F038FAF3E4844B012118789C
:1037000002F032FADBE44FF0FF3003F025FDFFF763
:1037100047BA4FF0FF3003F01FFDFFF75BB94FF0E2
:10372000FF3003F019FDFFF72FBA4FF0FF3003F021
:1037300013FDFFF73EB9002E3FF486AB4FF0FF308C
:1037400003F00AFD2E46FFF77FBBB5F1804FA84678
:1037500003D34FF0FF3003F0FFFCAE0006F1100082
:1037600006F048F90746002800F0348120F00F03E6
:1037700010331E4643F8040C002DA3DBFFE4644B1A
:10378000644A1C9317921868FEF791BE63689842CA
:103790007FF465AC72E44FF0FF3003F0DDFC54F8C9
:1037A000043C0B940C93FFF7BFBA4FF0FF3011921B
:1037B00003F0D2FCFFF7AAB9149B9D0005F110009D
:1037C00006F018F9002800F0728120F00F03103382
:1037D0000C9343F8040C0C9B1D93FFF7E8B94FEAD8
:1037E000880808F1100006F005F9002800F0538160
:1037F00020F00F0303F1100A4AF8040CCDF87CA066
:10380000FFF7D3B8B60006F1100006F0F3F8002871
:1038100000F0798120F00F0303F1100B4BF8040C3A
:10382000CDF87CB0FFF7ACB9BF0007F1100006F08F
:10383000E1F8002800F05C8120F00F0310330A93B8
:1038400043F8040C0A9B1E93FFF7BAB8149B9F0021
:1038500007F1100006F0CEF8002800F03E8120F0BD
:103860000F0310330C9343F8040C0C9B1D93FFF7CC
:10387000B8B8AD0005F1100006F0BCF8002800F063
:10388000218120F00F0310330A9343F8040C0A9BA4
:103890001E93FFF780B9204B1868E5E5002B77D120
:1038A0002068002106F004F800283FF4E3AD012170
:1038B0001A481B4F03F090F91A4803F013FB1A4BF8
:1038C0001A4A1E68106805F001FE314605F048FDF1
:1038D00006F016F8164B0E491B682660154A144E62
:1038E0001C910C46386001330120002110703360B8
:1038F00020682970FEF7DBBD8C95FF1FF094FF1F39
:103900008088FF1FC489FF1F7C88FF1F0888FF1F56
:10391000C889FF1F7498FF1F8C97FF1F20A300000A
:103920008897FF1FD88BFF1F6897FF1FA095FF1F69
:103930009895FF1F4697FF1F2BBB2068002105F0BD
:10394000B7FF00283FF496AD744B754E186805F02C
:10395000BDFD744B196805F003FD05F0D1FF724AF7
:10396000724B116821601B687149704C30600133E3
:103970000846704A1C9123600121002311700068E1
:103980002B70FEF794BD674B287018682060D5E750
:10399000694A0023106820602B7082E701232B7096
:1039A0002068CBE701232B7020687AE7614A6348DF
:1039B000012313705D4A022314211360FDF788F977
:1039C0005F4B5E4817933221FDF7C4F91C9B1868C2
:1039D000FEF76DBD002E3FF4CFAE4FF0FF3003F089
:1039E000BBFB3E46C8E6002F3FF416AC4FF0FF305D
:1039F00003F0B2FB4F460FE44FF0FF30139303F098
:103A0000ABFBFEF799BF4FF0FF30189303F0A4FB18
:103A1000FEF785BF4FF0FF301C4603F09DFBFEF71D
:103A200026BF4FF0FF301D4603F096FBFEF7FEBEAB
:103A3000284605F04BFD3C4B424C19683C4B1C930F
:103A40001D4605F08DFC05F05BFF3A4A2060012120
:103A50001170364A286808231360FEF728BD1FB18D
:103A60004FF0FF3003F078FB94E80C00364FA1686C
:103A7000D9F8000004970124002700900394184609
:103A800001940297FEF7FAFBFFF714BA2F490122BF
:103A900008681A70E8E4B8F1000F3FF4AFAE4FF0D9
:103AA000FF3003F059FBCDF87CA0FEF77EBF002D60
:103AB0003FF491AE4FF0FF3003F04EFB0C9B1D9393
:103AC000FFF775B8002D3FF4E2AE4FF0FF3003F082
:103AD00043FB0A9B1E93FFF75EB8002F3FF4C5AE71
:103AE0004FF0FF3003F038FB0C9B1D93FEF779BFBE
:103AF000002F3FF4A7AE4FF0FF3003F02DFB0A9BE1
:103B00001E93FEF75DBF002E3FF48AAE4FF0FF30EC
:103B100003F022FBCDF87CB0FFF732B8A095FF1F71
:103B2000C495FF1F9097FF1F4897FF1F9895FF1F91
:103B3000C889FF1F4697FF1F6897FF1F4C97FF1FFD
:103B40007498FF1F6497FF1F000080BF8C97FF1FB2
:103B50002DE9F843604B614C1868DFF8F891DFF805
:103B6000F8815F4F5F4E05F0B1FC4FF07C51054688
:103B700005F000FD05F0C4FE5B492060284605F015
:103B8000F9FC05F0BDFE5949C9F80000284605F0CA
:103B9000F1FC574A5749584C0860034613604FF0F0
:103BA0007F51284605F0E6FC544BC8F800001D681C
:103BB000284605F08BFC524905F090FD514B80469C
:103BC000186805F083FC0146404605F087FD4E4B22
:103BD0003860186895FBF0F005F078FC68213060DB
:103BE0004A48FCF73DFE0023402023606360A36049
:103BF00005F000FF0546002868D020F00F021032C3
:103C0000134642F8040C06250226414A41493A4827
:103C1000A56084E8480004F099FE1820FDF73AF901
:103C20003D4B3B4A18603D495D60184604F08EFEEE
:103C30001820FDF72FF93A4B354A186039495D6075
:103C4000184604F083FE0820FDF724F9364B304A6D
:103C5000186034495E60184604F078FE334B002249
:103C600003F16C0143F80C2C43F8082C43F8042CA6
:103C70000C339942F6D1264A2D49002004F066FE05
:103C80002C4B002203F16C0143F80C2C43F8082C58
:103C900043F8042C0C338B42F6D11D4A26490020F0
:103CA00004F054FE254801F0E9FB254801F0E6FB4D
:103CB000244801F0E3FB244A244B12681A600122D5
:103CC00023481146BDE8F84301F0E0B84FF0FF305B
:103CD00003F042FA2B4696E7C889FF1F7898FF1F2A
:103CE0006097FF1F6C98FF1FCDCCCC3DCDCC4C3DD9
:103CF0009097FF1F6897FF1F7897FF1FB089FF1FDE
:103D0000C3F51C41D489FF1F4088FF1F4C97FF1F3C
:103D1000FC87FF1FC90D0000F094FF1FDD0D0000A0
:103D2000C895FF1FB50D0000A495FF1F0C98FF1F3D
:103D3000110E0000A097FF1FF10D00009095FF1FCE
:103D40003897FF1F4097FF1F1488FF1F8C98FF1F95
:103D5000FC94FF1F9C95FF1F4897FF1F0020704792
:103D600090F8392090F83800101A704790F83830E1
:103D700090F839209A4205D95A1C034480F838201B
:103D8000187E70474FF0FF30704700BF90F8383012
:103D900090F839209A4286BF1B18187E4FF0FF30EA
:103DA000704700BF704700BF38B50546B0F85E00E9
:103DB00090B195F85D301446C3F1210294420CD8BD
:103DC00005F13B001844224601F096FC95F85D3061
:103DD000234485F85D30204638BD01201446287103
:103DE000EEE700BFB0F85E306BB190F85D30202B8D
:103DF00007D8C218013380F85D30012082F83B10EB
:103E00007047012303710020704700BF00234269FF
:103E100080F8383080F8393080F85C3080F85D30D8
:103E200080F85E3080F85F3006CA30B40D680469EF
:103E300043662A4383660A60A370426990F8613042
:103E40001649146813441D7A5B7B01EBC5051B0200
:103E50006D6803F4E06343F064032B6090F8623014
:103E600013449D7CDB7D01EBC5011B02496803F413
:103E7000E06343F064030B6021685368194205D086
:103E8000036928225A70036903229A710369202268
:103E90005A71036980229A7030BC70477CA400007C
:103EA00010B50269D378DBB2D90604463DD510219E
:103EB0005806D17038D503F0040303F0FF02002B3D
:103EC00051D03D49626E00230B7084F85D30002AAA
:103ED0005BD0904794F85D30002B56D02369D022F8
:103EE0009A70236994F83B201A712369012284F89F
:103EF0005C200222DA7010BD304B84F860009C42D6
:103F00004AD02F4B9C4252D094F8391013791F2974
:103F1000DBB207D82848007820B16018013184F856
:103F2000391003760223D37010BD5906C3D491789B
:103F300001F0100101F0FF000029DDD013F00103B2
:103F40001ED194F85C1094F85D00884281BF4B1C30
:103F5000091984F85C3091F83B3013712369D02241
:103F60009A702269DEE7236984F83920C0229A70AA
:103F70002369114A1979012111700222DA7010BDEA
:103F8000C023937022691379CCE70122002384F8BF
:103F90005D2084F83B30A1E7626994F861300949FB
:103FA00013440322187A01F00DFD2269ACE762691F
:103FB00094F861300449F3E79698FF1FD889FF1FF2
:103FC000448AFF1F29400000354000000369DB7868
:103FD00003F0200373B190F860300133DBB2012BA2
:103FE00080F860301AD9426990F861301344187A29
:103FF00001F064BD70B5426903F0FF0590F86130CF
:1040000013440446187A01F059FDA36E5BB184F89D
:10401000385094F83900BDE87040184790F85F3088
:10402000002BE0D0704770BD0148FFF7CFBF00BF45
:10403000D889FF1F0148FFF7C9BF00BF448AFF1F8F
:104040002DE9F047364FDFF8DC903B68026982B01B
:1040500006460093DDF8008000217825D3789B0682
:104060005AD53B680193019BC8EB03030F2BF5D98D
:1040700049B1102BF2D000209070336980229A70E1
:1040800002B0BDE8F087726996F8613013440521EB
:10409000187A01F06FFD726996F8613013440121BE
:1040A00093F812A0504601F065FD09240021504606
:1040B00001F05AFD2B46013BFDD10121504601F094
:1040C00053FD2B46013BFDD1013CEFD1706996F8C1
:1040D00061100144F0220C7A4B7B09EBC4011B02F6
:1040E000496803F4E06343F064030B6096F86230C0
:1040F0000344997CDB7D09EBC1011B02496803F491
:10410000E06343F064030B60013AFDD13269D37878
:104110009B064FF00101A4D4012002B0BDE8F08756
:10412000349BFF1F7CA40000F0B503691222DA70F3
:104130000269937803F0200385B004460D46002BF6
:104140005ED0B42393703C4922690B680093009EB3
:1041500005E00B680193019B9B1B042B42D8D3788D
:1041600003F0200303F0FF00002BF2D094F85D3041
:10417000002B31D04FF0000E4FF0020C04EB0E0379
:1041800093F83B3013710B680393039F206907E09A
:104190009B060DD50B680293029BDB1B052B28D8D1
:1041A000C378DBB203F0020202F0FF06002AEFD070
:1041B00080F803C02669F378DBB2DF0632462DD4DF
:1041C0009F062BD5DB0731D40EF1010E94F85D303C
:1041D0005FFA8EFE7345D1D800201DBB002384F802
:1041E0005E3004E09070236980229A70042005B04C
:1041F000F0BD86702369802204209A7005B0F0BD5E
:1042000003F0FF06FFF71CFF10B9042005B0F0BD56
:10421000236984F85F60B0229A7094E78023B370BA
:104220000420DAE726698023B370D7E7BEF1000FD8
:104230000CBF02200320F6E7349BFF1F2DE9F0415D
:1042400006690025122780F8385080F83950F77039
:10425000D0F810C09CF802E00EF0200E88B00446A2
:10426000884615461E46BEF1000F49D0B4238CF88F
:104270000230784B21691A680092DDF800E006E010
:104280001A6801920198CEEB0000042830D8C87853
:1042900000F0200000F0FF070028F1D04FEA4802AC
:1042A00042F00102D2B20A711A680292DDF808E007
:1042B000206906E01A6803920399CEEB01010529F3
:1042C0002AD8C17801F0020101F0FF070029F1D0DE
:1042D0004FF0020C80F803C02269D17811F0110769
:1042E00022D12DBB002E0CBFA0238023937003E0AE
:1042F0008F70236980229A70384608B0BDE8F0813B
:104300000EF0FF07FFF79CFE0028F5D0236984F824
:104310005F70B0229A70ACE78770236980223846BC
:104320009A7008B0BDE8F081802393700027E3E71E
:10433000012D75D0A021917021690A79BE4667468A
:104340004FF0A80C1A680492049805E01A680592C8
:10435000059A121A052A4AD8CA7802F0020202F017
:10436000FF08002AF2D0CF702169CA78D2B212F0C9
:10437000100F08465AD1920658D5013DEDB2012DD5
:1043800049D0BEF11F0F3BD90A79012DDAD11A6845
:104390000692069D05E01A680792079A521B052AA5
:1043A00046D8C27802F0020202F0FF01002AF2D0E1
:1043B0000223C3702269D378DBB2D9063AD49B06B4
:1043C00034D5B023BEF11F0F93703FD8226904EBA0
:1043D0000E0312791A760EF1010E5FFA8EFE16B1F7
:1043E000236980229A7084F839E0774684E781F85F
:1043F0000280236980229A70774684F839E07BE74F
:1044000004EB0E0291F8048082F818800EF1010E80
:104410005FFA8EFEB9E781F802C021690846B0E76D
:10442000A82191702069BE460279B0E7774663E71C
:104430008170DEE710217823D170013BFDD1226924
:10444000937803F0F7037746937055E723691B7958
:10445000C5E700BF349BFF1F0148FFF721BD00BF28
:10446000D889FF1F0148FFF71BBD00BF448AFF1F0B
:10447000704700BF064B074ADA62022100225960EA
:104480009A7083F8242083F8302083F83220704714
:104490009898FF1F90A3000010B50121007801F04B
:1044A00063FB0E4A137893B10D49CB7A002418466A
:1044B000147063B1DC0703D50A4A88691060184696
:1044C0009A0705D4430702D5074B0A6A1A6010BD44
:1044D000064BCA69C87A1A60F4E700BFF098FF1F5C
:1044E000B48AFF1F00E100E008E100E004E100E021
:1044F0001E4B1A781AB10078002101F035BB70B458
:104500001B4A1C49D47A096801251D70ECB172B6AA
:10451000D37ADE071C4606D5174DD4682E68344082
:1045200094612C601C469D0706D5144D13692E68B6
:10453000D47A3340D3612B60630705D5104C53699F
:1045400025682B401362236062B61368DA688A42DA
:1045500007D00C4C1C600C4AD96041F080441C61AF
:104560001A600078002170BC01F0FEBAF098FF1FBD
:10457000B48AFF1FEC98FF1F80E100E084E100E0B7
:1045800088E100E001403F0000003F80F0B41248A5
:10459000124A036882B016460093009F4FF0004510
:1045A000FF24136843F480631360D5625463D36AB5
:1045B000002BFCDAB36BDBB2FF2B09D0036801934D
:1045C000019BDB1B8B42ECD3002002B0F0BC704798
:1045D000012002B0F0BC7047349BFF1F00C00240B6
:1045E000F8B50D464FF4967116460446FFF7CEFF18
:1045F000284B1A684FF0004042F4806245F04001B9
:104600001A60D8621A465963D36A002BFCDA214932
:1046100018204FF000470A6826FA00F342F480623F
:10462000DBB20A60CF624B63CB6A002BFCDA08383E
:1046300010F1080FEFD155B3082D0CBF8721FF21D2
:10464000144B1A684FF0004042F480621A60D8623E
:104650001A465963D36A002BFCDA0E4A0027164625
:104660004FF00045FF21136843F480631360D56267
:104670005163D36A002BFCDAB36BD8B21B066070AF
:1046800000D4F8BD0137B7F5807FECD1F8BD952196
:10469000D6E700BF00C00240F0B41549154A0B68C8
:1046A00082B016460093009F4FF00045FF24136828
:1046B00043F480631360D5625463D36A002BFCDA41
:1046C000B36BDBB2FF2B43700AD10B680193019BE4
:1046D000DB1BB3F5967FEAD9002002B0F0BC70472F
:1046E000A3F1FE00B0FA80F0400902B0F0BC7047C0
:1046F000349BFF1F00C00240F8B58378032B0E46A1
:10470000044618BF4E021546FFF7F2FE324611214D
:104710002046FFF765FF18B92046FFF7BDFF20B917
:104720002046FFF7B9FE0020F8BD204B2049214A62
:104730001A608E4659631A4659631E46596305F539
:10474000FD70A91C05F5FE77D36A13F0F00FFBD0BE
:10475000C6F834E0B36B01F8013C1B1201F8023CCF
:1047600002318F42F0D105F50075A8420DD20F4AF3
:104770001646D36A13F0F00FFBD0B36B191200F892
:10478000021BA84200F8013CF3D3084B0949084A30
:10479000196019465A63CB6A044A13F0F00FFAD035
:1047A0002046936BFFF778FE0120F8BD00C0024061
:1047B000FFFF009000041F80F0B4314E33684FF0CB
:1047C000004743F4806333603D46F76234467163CB
:1047D0003346511C02F20127E26A002AFCDA1A6809
:1047E00011F8016C42F480621A60DD625E63E26A75
:1047F000002AFCDA1A6811F8026B42F480628F42D8
:104800001A60DD625E63E7D11D49CA6A1C4B002A4B
:10481000FBDA1A684FF0004542F48062FF241A6008
:104820001946DD625C63CB6A154A002BFBDA13681C
:104830004FF0004543F48063FF2413601146D562B6
:104840005463CB6A0E4A002BFBDA13684FF0004525
:1048500043F48063FF2413601146D5625463CB6A2E
:10486000074A002BFBDA936BDBB203F01F024370A5
:10487000A2F10500B0FA80F04009F0BC704700BF1B
:1048800000C0024070B5044671B18378032B0D4619
:1048900018BF4D021646FFF72BFE2A461821204668
:1048A000FFF79EFE054620B12046FFF7F5FD0020EC
:1048B00070BD3246FE212046FFF77EFF0028F3D070
:1048C0004FF416712046FFF761FE0028ECD02A460F
:1048D0000D212046FFF784FE0028E5D10B4B1A6816
:1048E0004FF0004542F48062FF201A601946DD62F5
:1048F0005863CB6A054A002BFBDA936B13F0FF0F6A
:10490000D2D12046FFF7C8FD012070BD00C0024093
:10491000014B024A1A607047EC98FF1F00000238F2
:1049200038B590F90530002B03DBBDE8384000F0C6
:104930006DB904460121006900F092F9F8B1257DB6
:10494000104B13EB45151AD0A3790F4A012B9CBFCE
:10495000A369EB61E36912686B831B0CAB8232B114
:1049600005F1160105F1180090472B8B6B826379D6
:1049700003F07F036371BDE8384000F047B90020C1
:1049800038BD00BF0099FF1FF498FF1F10B500F15C
:10499000080204460121006A00F000FA50B1E36900
:1049A0003BB96379A268E26163F07F036371012020
:1049B00010BD012010BD00BFF8B5837913B1826925
:1049C0008A4201D20020F8BD022B0F4605461AD0BC
:1049D00007B32B6AE9681C7C4A1E04F109037C1E9C
:1049E000DA40DC40A24211D9EB69AB6005F1080660
:1049F00006E0A968286A00F099F9013C0028E1D096
:104A00003246002CF5D1EF600120F8BD0029EBD033
:104A1000A41AEBE7AF60EF600120F8BD2DE9F04F7D
:104A20008B46817985B001290746019205D0012383
:104A30003B71002005B0BDE8F08F42799107F6D5B3
:104A4000530708D5FC68B9698C4200F0A880FFF7CD
:104A5000B3FF0028EBD0019BFC68002B49D0DFF8A6
:104A60008C91DFF88CA1DDF80480386A0679013E6C
:104A700006EA542616F0FF06C4F3080442D1002CBF
:104A800040D1B96800296FD1FA69002A7ED0BA6096
:104A9000C4F50075ADB245453AD9057C4169023A85
:104AA000AA400E4416441FFA88F51CB9F868BA6982
:104AB00090424CD23046012100F0D2F80028B6D006
:104AC0004C4404EB050E74450DD00BF1FF31621E12
:104AD0000EF1FF3611F8010F02F8010F9642F9D1DD
:104AE000C4EB0E04A344FC68B8EB05082C44FC603E
:104AF000BBD1BB69A34257D27A79BC6142F0800234
:104B00007A715AE0C4F50075ADB24545BA68C4D8AB
:104B1000017C4069023A8A400644B5F5007F16449C
:104B2000C3D1DAF80020964204BF4FF0FF32CAF832
:104B300000202A4A314610685A46FFF7A3FE002893
:104B40003FF475AF0BF5007B4FF40075CBE700F039
:104B50005DF800283FF46BAF2149CAF800600A787D
:104B600042F001020A70ABE703AA00F0DFF8002868
:104B70003FF460AF386A1B4B90F82050039A4FF611
:104B8000F871102D18BF19468A4280D33846FFF7B6
:104B9000FDFE00283FF44BAF386ABA6878E7019B06
:104BA000002B7FF45CAF08E00F4B7A791B6823B1D0
:104BB000019B13B142F080027A71120709D5BB79CB
:104BC000002B3FF434AF3846FFF7AAFE00283FF42D
:104BD0002EAF019805B0BDE8F08F00BFFC98FF1F15
:104BE000009BFF1FF8FFFF0FF498FF1F0099FF1FA6
:104BF000B08AFF1F00B583B002AB012203F8011D8C
:104C00001946FFF70BFF03B05DF804FB70B50F4CBE
:104C100023780BB9012070BD0D4B0E4D1968286823
:104C20000D4AFFF72FFE70B10C4E316819B9002301
:104C30002370012070BD2868074AFFF723FE10B1DA
:104C400000233360F3E7002070BD00BF009BFF1F0F
:104C5000B08AFF1FFC98FF1F0099FF1FF898FF1FE5
:104C600070B50D4D2B6883420E460ED00446FFF7FB
:104C7000CDFF08B9002070BD084B094A18682146CD
:104C8000FFF73AFD0028F5D02C60064B1978314328
:104C90001970012070BD00BFB08AFF1FFC98FF1F74
:104CA0000099FF1F009BFF1FF8B590F82030C469E2
:104CB000102B1A4B05460E4617461B6816D004EB00
:104CC000D1149C4216D106F07F06154A42F8267090
:104CD0001449287E0A78012842F001020A7018D986
:104CE000A968114A0B4413600120F8BD04EB11249C
:104CF0009C4208D000212046FFF7B2FF50B195F842
:104D00002030102B07D1F6B2054A234622F8167040
:104D1000DEE70120F8BD2346D5E700BFB08AFF1FBC
:104D20000099FF1F009BFF1FF898FF1FC368013306
:104D30008B4218D370B590F82030102B154B0446D9
:104D400016460D46C0691B680FD000EBD110984283
:104D50000FD105F07F01104B53F8213023F0704341
:104D60003360012070BD0020704700EB1120984295
:104D700007D00021FFF774FF50B194F82030102BBA
:104D8000E7D1E9B2044B33F811303360012070BD34
:104D9000002070BDB08AFF1F0099FF1F2DE9F04F62
:104DA000176883B06FB301374FF0000AC36803F18F
:104DB000010813B38B46064691463C46002505E0A4
:104DC0001C461F46F3680135AB4216D9A04538BFD3
:104DD0000224214601AA304638BF2746FFF7A6FF26
:104DE000631CD91B48B1019A002AE9D18B4510D028
:104DF0001C46F3680135AB42E8D8002003B0BDE89B
:104E0000F08FA1F1010ABAFA8AFA07684FEA5A1A32
:104E1000CCE7012CF1D9F36801339C42EDD86FF057
:104E2000704221463046FFF73FFF0028E5D0A742F9
:104E300014D2013C012CE0D9F36801339C42DCD848
:104E4000621C21463046FFF72FFF0028D5D0A7422D
:104E500004F1FF3402D0012CEED1CEE7D9F80010D6
:104E600059B10129C9D9F36801339942C5D83A46E5
:104E70003046FFF719FF0028BFD0C9F80070BAF11B
:104E8000000F01D0013737600120B7E72DE9F84363
:104E90001B4C1C4BB4F8089094F80A8007468E46C9
:104EA000206861683B6007F12C05002304F10C06C3
:104EB000BB62944603C50FCEA5F8009085F802802A
:104EC00007F138050FC50FCE0FC596E80700383437
:104ED00085E807000FCC07F164050FC50FCC0FC59F
:104EE00094E8070085E80700704687F809C087F84E
:104EF00008E0012100F03EFE3846BDE8F88300BF1F
:104F0000A0A3000000000238114B816A1B684FF01B
:104F10000040C1F30742D8625A63DA6A002AFCDA19
:104F20004FF00040C1F3072210B49C6BD8625A6363
:104F3000DA6A002AFCDAC9B24FF00042986BDA62F2
:104F40005963DA6A002AFCDA9B6B10BC704700BF19
:104F5000B48AFF1FF8B5837A3F4E04460D4613B35B
:104F60000021207A00F000FE032D51D00B2D5CD0E3
:104F7000022D0AD032684FF00043D3625563D36AE2
:104F8000002BFCDA936B0120F8BD32684FF0004330
:104F9000D3625563D36A002BFCDA2046936BFFF78C
:104FA000B3FF0120F8BDF37A0268EBB172B6F37A71
:104FB000DF07194606D5294FF16838680840B06107
:104FC00019463860980706D52549336908680340B3
:104FD000F3610B60F17A4B0705D5224973690868C4
:104FE000034033620B6062B63368D968914207D0E0
:104FF0001D4818601D49DA6042F080401861196050
:105000000123A3720021207A00F0AEFD032DADD163
:1050100032684FF00043D3625563D36A002BFCDA49
:105020002046936BFFF770FFBBE733684FF00042F9
:10503000DA625D63DA6A002AFCDA4FF00041EE22A0
:10504000986BD9625A63DA6A002AFCDA20469B6BB5
:10505000FFF75AFF0120F8BDB48AFF1F80E100E08E
:1050600084E100E088E100E001403F0000003F8073
:1050700010B501210446007A00F076FD0B4AD37A80
:105080008BB1D807194603D50949906908601946BC
:10509000980703D5074BD069D17A18604B0702D522
:1050A000054B126A1A600023A37210BDB48AFF1F59
:1050B00000E100E004E100E008E100E038B505218E
:1050C0000546FFF747FF084B1A684FF000410023E1
:1050D000D1625363D36A002BFCDA946B287A0121E6
:1050E00000F042FDE0B238BDB48AFF1FF0B50F4DAD
:1050F00083B02B680093009F04460E4601E0C3076F
:1051000011D52046FFF7DAFF2B680193019B6073EE
:10511000DB1BB342F3D9042320462373FFF7A8FF18
:10512000002003B0F0BD012003B0F0BD349BFF1F91
:1051300038B50A210446FFF7D9FF054608B92846C5
:1051400038BD9F212046FFF705FF184B1B684FF025
:1051500000410022D9625A63DA6A002AFCDA9A6BAB
:1051600022744FF000410022D9625A63DA6A002AA1
:10517000FCDA9A6B62744FF000410022D9625A63E4
:10518000DA6A002AFCDA9B6BA3740121207A00F012
:10519000EBFC237C23B1637C13B1A37C002BCED129
:1051A0000C2300252373284638BD00BFB48AFF1F97
:1051B000F8B50A210446FFF799FF054608B92846C5
:1051C000F8BD5A212046FFF7C5FE0023A362204602
:1051D000FFF79AFE124B1A684FF00041EE23D1629E
:1051E0005363D36A002BFCDA0021936BA0690F464E
:1051F0004FF00046D6625763D36A002BFCDA936BFC
:10520000DBB28B40083120291844F3D1A061012181
:10521000207A00F0A9FC034BA3612846F8BD00BF2B
:10522000B48AFF1F5346445070B50446FFF7C0FFD1
:105230002046FFF77DFF90B1E3694BB9227CA28243
:10524000EF2A0DD0BF2A0BD003222273184670BD5F
:10525000DB089B02002102222362A182227370BD1F
:10526000A67C04F12B0204F1380304F1640502E08A
:105270000433AB420AD012F8011FB142F8D11968C9
:10528000E161D96A21620433AB42F4D170BD00BF41
:1052900010B5044609B1C908C161054800F0B0F86D
:1052A0004FF0384323602046FFF7BEFF10BD00BF1C
:1052B000B48AFF1F10B4047F4160022CC26002D088
:1052C00010BC01F08DBD836810BC1847F0B4464B8C
:1052D000464A186BDC6A01791170454922790A70D7
:1052E0009A6A00790870002A46D05968C9688A42CB
:1052F0003ED82168CC8B240402F1FF3065D4C0F382
:105300000E00C883C88B80B2C882196B0968C88B2D
:10531000000452D4C2F30E00C883C88B002480B2AC
:1053200012F1FF32C88218BF01229C62D96A2E484E
:1053300009680D6800F12404A54236D00068C468ED
:1053400014F0804F0C680D6815BF2488247802354E
:10535000013544F000440D604463196B254B097915
:105360001970214912B1CA6A12791A70F0BC7047DB
:10537000521A9A620122D9E7586B196805681E4CC7
:105380000A63CC62CC682D681C4E24F0804403274D
:10539000B542CC6083F825701FD1037F4260022B99
:1053A000C2601ED0F0BC01F01BBD016890F8240063
:1053B000CC6840F000404863CFE7CC8BC2F30800D4
:1053C00004F47E442043C883A7E7CC8BC0F30800D5
:1053D00004F47E442043C88394E72B461146F0BC76
:1053E00018478368F0BC1847B48AFF1F1F8000402D
:1053F0001C8000401B80004000000FFFB5520000E1
:1054000090E80C00F0B41C6859682568164F174ED8
:1054100029432160164D17491760D6601561116048
:10542000417A154A5C180A3194F8244053F8215007
:1054300002EBC40149680D60017A5C1803EB81013D
:10544000247ECD6902EBC40149680D60817A581849
:1054500003EB810390F83000596B02EBC002F0BC03
:1054600053681960704700BF01401F0001100038E9
:105470000110007800001F807CA4000070B40F4E63
:105480000023358803710C21012215424FEA4204A2
:105490000AD00379013903F10103A2B20371F4D1F7
:1054A000FF23037170BC704705490B88154323EA3D
:1054B000020235800A8070BC704700BF0C9BFF1F42
:1054C000089BFF1FF8B504790B2C01D92046F8BDC5
:1054D0000646CDB2284601211F46144600F04AFB7D
:1054E0001B4832791B4B01889D54012393400B4389
:1054F000194903800B68194804EBC40407EBC7077C
:1055000043F2BC4513F480033480778020F81250B6
:1055100016D10A68124D1348DFF85CE0124F134CA5
:1055200042F480020A604FF6FF722A601049CEF8FA
:10553000003042F6A27520223B60056001602270B7
:105540000C4B4FF480721A6034792046F8BD00BFCE
:10555000089BFF1F289BFF1F3C800440109BFF1FE0
:1055600004600340006003400C60034048E400E036
:10557000A22F010008E100E0086003404FF4166329
:105580004FF40872FFF79EBF03790B2B25D8B1F5B6
:10559000087F08DB028801EBC10191421EDA18493D
:1055A00021F81320704710B44288048821EAE17181
:1055B000B429A2EB0402A8BFB421B32A16DD114816
:1055C00001FB02F180FB01020A44C917C1EBE211A1
:1055D00021440B4A10BC22F81310704742888A42BB
:1055E000A8BF0A46064921F813207047064802FB67
:1055F000011180FB0102C917C1EB62112144E8E7E8
:10560000109BFF1FB7600BB6A379422DF8B5314E42
:10561000314D96F900202B881341DC0752D42F4CD2
:1056200094F900300B2B0EDC298841FA03F2D007E5
:1056300002D52DE0D2072AD401335BB20C2B41FAFC
:1056400003F2F7D1237026480268C2F52F3101F525
:105650004871B1F5617F17DB4EF660238B42A8BF1E
:105660000B461A441F4902600E681F4D1F4A1C4F0B
:10567000334442F6A3760B602E600368934202D94E
:1056800000233B602370F8BD4FF46173E9E723709A
:10569000174A0121D05C00F067FA94F90030104AF3
:1056A0001449104831F813501168337029441160BF
:1056B00002680D492A44013342F6A37502600D6069
:1056C0002370F8BD0A4B0021985C00F04DFA0C23C2
:1056D0003370A4E7EC8AFF1F089BFF1F0A9BFF1F84
:1056E000049BFF1F0C600340006003401FBF0200CB
:1056F000289BFF1F109BFF1F844641EA000313F005
:1057000003036DD1403A41D351F8043B40F8043BC8
:1057100051F8043B40F8043B51F8043B40F8043B8B
:1057200051F8043B40F8043B51F8043B40F8043B7B
:1057300051F8043B40F8043B51F8043B40F8043B6B
:1057400051F8043B40F8043B51F8043B40F8043B5B
:1057500051F8043B40F8043B51F8043B40F8043B4B
:1057600051F8043B40F8043B51F8043B40F8043B3B
:1057700051F8043B40F8043B51F8043B40F8043B2B
:1057800051F8043B40F8043B403ABDD2303211D3CB
:1057900051F8043B40F8043B51F8043B40F8043B0B
:1057A00051F8043B40F8043B51F8043B40F8043BFB
:1057B000103AEDD20C3205D351F8043B40F8043BCB
:1057C000043AF9D2043208D0D2071CBF11F8013BC9
:1057D00000F8013B01D30B8803806046704700BF8F
:1057E000082A13D38B078DD010F003038AD0C3F19E
:1057F0000403D21ADB071CBF11F8013B00F8013B80
:1058000080D331F8023B20F8023B7BE7043AD9D33E
:10581000013A11F8013B00F8013BF9D20B78037013
:105820004B7843708B7883706046704708B5104C96
:1058300008E0236859050DD423681A050FD423689E
:10584000DB0411D423685803F3D500F057FB236819
:105850005905F1D500F00EF823681A05EFD500F0D0
:1058600009F82368DB04EDD500F004F8EAE700BF8F
:105870003480044008B5FFF7D9FF00BF014B102268
:105880001A80704700200540704700BF094908B5DD
:105890000B6830B16A461844A2F58052904202D299
:1058A0000860184608BD04F077F80C2303604FF039
:1058B000FF3008BDF08AFF1FF0B44D1E2E460024B5
:1058C00000E00134B0FBF2F302FB1300092800F101
:1058D00030078ABF3730F8B2C0B206F8010F184659
:1058E000002BEED10A1953704CB1107815F8016FE6
:1058F00028700133E01A834202F80169F5DB08469B
:10590000F0BC7047704700BF10B40F4B53F8302005
:1059100092F880422CB1012369B182F8803010BC2A
:10592000704703EBC0035B681A6841B922F00202BA
:105930001A6010BC704782F8003110BC704742F00A
:1059400003021A6010BC70477CA400001C4A02EBE2
:10595000C00301295B6811D004291BD052F8300024
:10596000002280F8802229B1022920D0032922D0E8
:105970001A6070474FF480721A60704752F8300016
:105980004FF4A27280F880121A601A6822F0200286
:105990001A60704752F830104FF4A272012081F85B
:1059A00080021A601A6842F020021A60704740F2C2
:1059B00003121A6070474FF481721A60704700BF7B
:1059C0007CA40000212848D8F8B5042A44D8DFE890
:1059D00002F0484B4E0345004FF410262B4B03EBCF
:1059E000C0030D465C68216811F4E06148D0284B83
:1059F000284A2949C3F89C2104F140422748C3F8AA
:105A0000A411A2F59221264FC3F8A0017C292548B4
:105A1000C3F8A871C3F8AC012CD9A2F594237C2B50
:105A20002AD9A2F596237C2B28D9A2F598237C2B82
:105A300029D9A2F59A227C2A27D81B4872B6236856
:105A400023F4702343F08072C4F38401164323606F
:105A500040F82150266062B6F8BD70474FF43026FA
:105A6000BCE74FF40026B9E74FF44026B6E74FF401
:105A70002026B3E70D48E1E70D48DFE70D48DDE7F5
:105A8000FFF764FFB3E70C48D8E7F8BD7CA400003B
:105A90000082FF1FD187FF1F7987FF1FA587FF1F88
:105AA0004D87FF1F2187FF1FCC8BFF1FF48AFF1F2D
:105AB0002C8BFF1F7C8BFF1FAC8BFF1F1A4B03EB44
:105AC000C00010B4426802F14043A3F592217C2942
:105AD00023D9A3F594217C290DD9A3F596217C29FE
