:1000000000800020BD010000D10800008908000028
:10001000890800008908000089080000890800009C
:10002000890800008908000089080000D108000044
:10003000D108000089080000E91A0000ED1A00004C
:10004000D1080000D1080000D1080000D10800004C
:10005000D1080000D1080000D1080000D10800003C
:10006000D1080000D1080000D1080000D10800002C
:10007000D1080000D1080000D1080000D10800001C
:10008000D1080000D1080000D1080000D10800000C
:10009000D1080000D1080000D1080000D1080000FC
:1000A0003D07000049070000D1080000D10800000A
:1000B000D1080000D1080000D1080000D1080000DC
:1000C000D1080000D1080000D1080000D1080000CC
:1000D000D1080000D1080000D1080000D1080000BC
:1000E000D1080000D1080000D1080000D1080000AC
:1000F000D1080000D1080000D1080000D10800009C
:10010000D1080000D1080000D1080000D10800008B
:10011000D1080000D1080000D1080000D10800007B
:10012000D1080000D1080000D1080000D10800006B
:10013000D1080000D1080000D1080000D10800005B
:10014000D1080000D1080000D1080000D10800004B
:10015000D1080000D1080000D1080000D10800003B
:10016000D1080000310E0000D1080000D1080000C5
:10017000D1080000D1080000D1080000D10800001B
:10018000D1080000D1080000D1080000D10800000B
:10019000D1080000D1080000D1080000D1080000FB
:1001A000D1080000D1080000D1080000D1080000EB
:1001B000D1080000D1080000D1080000564B4CF2D5
:1001C000205210B51A804DF628121A8000BF00BFC9
:1001D00000F082FB514B4FF010621A60504A9A6057
:1001E000504ADA60504A136813F4807304D14F49BF
:1001F0000B604FF4A85313604D4B1A78110703D5C9
:100200001A7842F008021A704A4B4B492A221A7097
:100210004A4A4B4B8B4204D252F8040F43F8040B6A
:10022000F8E7484B484900228B4202D243F8042B9E
:10023000FAE74649464A002352F8230041F82300D2
:1002400001336F2BF8D1434B434A802103F8011B44
:100250009342FBD1414B3D4A1A60414B8A221A70AE
:10026000A3F5805324225A70A0221A709A7992071B
:10027000FCD59A79D406FCD43A4A937903F00C035E
:10028000082B384BF9D105221A7143225A719A79F9
:100290009006FCD5334A9179324B4906FBD5324A58
:1002A0004FF0817111600521516020221A709A79F6
:1002B00002F00C020C2AFAD12C4B2D4A1A602D4B5D
:1002C0002D4A1A6000225A60072243F8042C2B4A58
:1002D000C3F80C2D62B600F095FC144B1B68DA07CE
:1002E00005D5274800F020FC264B274A1A60274BEB
:1002F0001B785B0609D5234C234B22689A4204D114
:100300001F4800F011FC0023236001F04FFD00F0B6
:10031000E9FA01F0F3FBFEE70E20054030800440CF
:10032000823F04000100002B10D0034014D0034092
:1003300002D0074000E00740908EFF1FCC20000055
:100340002087FF1F908EFF1FE48FFF1F0082FF1F7B
:100350000000000000E400E05FE400E008ED00E0E1
:1003600000500640004006404480044004800440A1
:10037000C010050014E000E03F190100000020203B
:100380006AAC535F1CE00340A5C3945A00F00740D9
:10039000FFFFFFFFFFFFFFFFFFFFFFFFFFFFFFFF6D
:1003A000FFFFFFFFFFFFFFFFFFFFFFFFFFFFFFFF5D
:1003B000FFFFFFFFFFFFFFFFFFFFFFFFFFFFFFFF4D
:1003C000FFFFFFFFFFFFFFFFFFFFFFFFFFFFFFFF3D
:1003D000FFFFFFFFFFFFFFFFFFFFFFFFFFFFFFFF2D
:1003E000FFFFFFFFFFFFFFFFFFFFFFFFFFFFFFFF1D
:1003F000FFFFFFFFFFFFFFFFFFFFFFFFFFFFFFFF0D
:10040000FFFFFFFFFFFFFFFFFFFFFFFFDEF9FFFF23
:1004100010B5054C237833B9044B13B10448AFF33E
:1004200000800123237010BD908EFF1F000000008C
:10043000D0200000084B10B51BB108490848AFF3A5
:1004400000800848036803B910BD074B002BFBD0A0
:10045000BDE81040184700BF00000000948EFF1F49
:10046000D0200000908EFF1F0000000038B5124C15
:10047000124D2078012100F06FFB2078002100F060
:1004800065FB2878012100F067FB2878012100F046
:100490005DFB44F6206000F065FB2878002100F049
:1004A00055FB2078012100F051FB41F28830BDE876
:1004B000384000F057BB00BFFC87FF1F0088FF1FBC
:1004C00010B5094C0021207800F040FB41F2883043
:1004D00000F048FB2078012100F038FB4FF4FA606F
:1004E000BDE8104000F03EBBFC87FF1F00207047B6
:1004F00090F8392090F83800101A704790F838308A
:1005000090F839209A4205D95A1C034480F83820C3
:10051000187E70474FF0FF30704700BF90F83830BA
:1005200090F839209A4286BF1B18187E4FF0FF3092
:10053000704700BF704700BF38B50546B0F85E0091
:1005400090B195F85D301446C3F1210294420CD865
:1005500005F13B001844224600F0FCF895F85D30A8
:10056000234485F85D30204638BD012014462871AB
:10057000EEE700BFB0F85E306BB190F85D30202B35
:1005800007D8C218013380F85D30012082F83B1093
:100590007047012303710020704700BF10B5026946
:1005A000D378DBB2D90604463DD510215806D17068
:1005B00038D503F0040303F0FF02002B51D03D496E
:1005C000626E00230B7084F85D30002A5BD0904788
:1005D00094F85D30002B56D02369D0229A7023699D
:1005E00094F83B201A712369012284F85C200222CE
:1005F000DA7010BD304B84F860009C424AD02F4B1B
:100600009C4252D094F8391013791F29DBB207D8D5
:100610002848007820B16018013184F83910037639
:100620000223D37010BD5906C3D4917801F0100194
:1006300001F0FF000029DDD013F001031ED194F872
:100640005C1094F85D00884281BF4B1C091984F846
:100650005C3091F83B3013712369D0229A70226983
:10066000DEE7236984F83920C0229A702369114A91
:100670001979012111700222DA7010BDC023937024
:1006800022691379CCE70122002384F85D2084F8E5
:100690003B30A1E7626994F86130094913440322B1
:1006A000187A00F081F92269ACE7626994F8613048
:1006B0000449F3E7AC8EFF1F0488FF1F7088FF1FFB
:1006C00025070000310700000369DB7803F02003F1
:1006D00073B190F860300133DBB2012B80F86030E9
:1006E0001AD9426990F861301344187A00F0D8B9E9
:1006F00070B5426903F0FF0590F861301344044679
:10070000187A00F0CDF9A36E5BB184F8385094F8F4
:100710003900BDE87040184790F85F30002BE0D0FA
:10072000704770BD0148FFF7CFBF00BF0488FF1FAF
:100730000148FFF7C9BF00BF7088FF1F0148FFF7DE
:100740002DBF00BF0488FF1F0148FFF727BF00BF70
:100750007088FF1F844641EA000313F003036DD144
:10076000403A41D351F8043B40F8043B51F8043B74
:1007700040F8043B51F8043B40F8043B51F8043B7B
:1007800040F8043B51F8043B40F8043B51F8043B6B
:1007900040F8043B51F8043B40F8043B51F8043B5B
:1007A00040F8043B51F8043B40F8043B51F8043B4B
:1007B00040F8043B51F8043B40F8043B51F8043B3B
:1007C00040F8043B51F8043B40F8043B51F8043B2B
:1007D00040F8043B51F8043B40F8043B51F8043B1B
:1007E00040F8043B403ABDD2303211D351F8043BBB
:1007F00040F8043B51F8043B40F8043B51F8043BFB
:1008000040F8043B51F8043B40F8043B103AEDD269
:100810000C3205D351F8043B40F8043B043AF9D2BA
:10082000043208D0D2071CBF11F8013B00F8013B8D
:1008300001D30B8803806046704700BF082A13D39A
:100840008B078DD010F003038AD0C3F10403D21AB2
:10085000DB071CBF11F8013B00F8013B80D331F8E6
:10086000023B20F8023B7BE7043AD9D3013A11F866
:10087000013B00F8013BF9D20B7803704B784370D1
:100880008B7883706046704708B5104C08E0236889
:1008900059050DD423681A050FD42368DB0411D43D
:1008A00023685803F3D500F0C3FA23685905F1D53E
:1008B00000F00EF823681A05EFD500F009F8236858
:1008C000DB04EDD500F004F8EAE700BF3480044013
:1008D00008B5FFF7D9FF00BF014B10221A807047FF
:1008E00000200540704700BF704700BF10B40F4B99
:1008F00053F8302092F880422CB1012369B182F87C
:10090000803010BC704703EBC0035B681A6841B9C4
:1009100022F002021A6010BC704782F8003110BC4D
:10092000704742F003021A6010BC70474C1F000071
:100930001C4A02EBC00301295B6811D004291BD0BB
:1009400052F83000002280F8802229B1022920D0FC
:10095000032922D01A6070474FF480721A607047E2
:1009600052F830004FF4A27280F880121A601A68B0
:1009700022F020021A60704752F830104FF4A27231
:10098000012081F880021A601A6842F020021A6081
:10099000704740F203121A6070474FF481721A6078
:1009A000704700BF4C1F0000212848D8F8B5042A22
:1009B00044D8DFE802F0484B4E0345004FF41026C0
:1009C0002B4B03EBC0030D465C68216811F4E0611A
:1009D00048D0284B284A2949C3F89C2104F14042B9
:1009E0002748C3F8A411A2F59221264FC3F8A0010D
:1009F0007C292548C3F8A871C3F8AC012CD9A2F50D
:100A000094237C2B2AD9A2F596237C2B28D9A2F5F6
:100A100098237C2B29D9A2F59A227C2A27D81B4817
:100A200072B6236823F4702343F08072C4F3840108
:100A30001643236040F82150266062B6F8BD704727
:100A40004FF43026BCE74FF40026B9E74FF44026B8
:100A5000B6E74FF42026B3E70D48E1E70D48DFE79E
:100A60000D48DDE7FFF764FFB3E70C48D8E7F8BDB2
:100A70004C1F00000082FF1FD187FF1F7987FF1FD7
:100A8000A587FF1F4D87FF1F2187FF1FB489FF1F09
:100A9000DC88FF1F1489FF1F6489FF1F9489FF1FD3
:100AA0001A4B03EBC00010B4426802F14043A3F5B7
:100AB00092217C2923D9A3F594217C290DD9A3F572
:100AC00096217C291FD9A3F598217C2919D9A3F552
:100AD0009A237C2B11D80E4C00E00E4C72B6136892
:100AE0000D4823F08773C2F3840123F4803343F06D
:100AF0008073136044F8210062B610BC7047074C45
:100B0000ECE7074CEAE7074CE8E700BF4C1F0000A2
:100B1000B489FF1F1489FF1FE9080000DC88FF1F4C
:100B20009489FF1F6489FF1F30B4054B054D064CA7
:100B3000002210211A602A602060196030BC7047C2
:100B400014D0034004D0034000D00340212801D832
:100B5000FFF7CCBE704700BF212801D8FFF7E8BEE1
:100B6000704700BF2DE9F843054672B6214F224B6E
:100B7000224A1B683C68126862B6520102D5322BC9
:100B800088BF0134A5B3C3F58C331D4EDFF86890E0
:100B9000DFF8688003F23F134FF47A72A6FB031369
:100BA00002FB04F404EB131472B6D9F800103A688F
:100BB000D8F800E062B6C1F58C3303F23F13A6FB10
:100BC00003031EF0806FC4EB13134FF47A7002D04E
:100BD000322988BF013200FB0233B3F57A7F04D398
:100BE000013D05D004F57A74DEE700F08FFFDBE706
:100BF000BDE8F883B08EFF1F18E000E004ED00E0D0
:100C0000398EE338F8B52D4B2D49DFF8D0E0DFF809
:100C1000D0C02C4E2C4D2D4C2D4A2E4F4FF40000A1
:100C200018604FF0807018604FF0007018604FF03F
:100C3000806018604FF00060186000200860282372
:100C400048F6FF71CCF80010CEF800303360136026
:100C50002B6023603B60B3629362092245F8242C29
:100C6000C4F8D80F05F57F65C7F8D41F07F5FF272F
:100C700007F5FA67C6F8F83F2B6006F5FF26C4F8BB
:100C8000D42F05F5FD2504F5FF24386006F2F4762F
:100C90001148316005F5FF6504F5FD642B602360A4
:100CA000026000F0A9FF1920FFF75CFF00F026FEAC
:100CB00040F21310BDE8F840FFF754BF08E100E030
:100CC0000480034014800340248003402C800340B0
:100CD0001C8003403480034000800B400C800340A4
:100CE0000880034030B472B62B4A13781D0706D52E
:100CF0002A4B196A002936D0996A002941D05378C5
:100D00001C0706D5254B196C00293ED0996C00298B
:100D100039D09378190705D5204B196E002936D0A4
:100D2000996E89B1D3781B0707D51C4BD3F8802067
:100D30007AB3D3F8882011213AB162B6184B002259
:100D40001A7030BC00F056BE0D21154C154D22789E
:100D500043F8315003EBC1030830013A5860227068
:100D600062B630BC704704220D4C0F4D217843F819
:100D7000325003EBC20308304A1E5860227062B63C
:100D8000EFE70521E1E70921DFE70822ECE70C2284
:100D9000EAE71022E8E700BF5C2000000080FF1FA8
:100DA000898FFF1FC800400088004000431E032BAE
:100DB0001DD81B4A400140F0100030B4104472B6F8
:100DC000184CE25C032A1BD8DFE802F00212151768
:100DD00003220D88E25410F0080F14BFC8238823A3
:100DE00043EA054308310360416062B630BC704796
:100DF00008300222EDE70522EBE708300422E8E79D
:100E0000094A52F8230038B1084A52F823004160D9
:100E100042F8231062B6E9E742F82310034AF7E7E5
:100E20000080FF1F988FFF1F608FFF1F708FFF1FB5
:100E30002DE9F04FDFF818B3DFF818A387B044E0CE
:100E4000AE4F4FEA930807EBC809013ED9F80420DA
:100E500003F00803F6B2A2F1080003F0FF04002B30
:100E600040F0048157F838301B0C99B222F8081C66
:100E7000002B00F0F280A24B22F8064C42F8044C02
:100E800053F82620002A00F06E819E4D55F826303A
:100E900058609D4C45F8260034F81630194424F863
:100EA000161000F087FD002800F05681974A984BF5
:100EB00019F0080F00F1080018BF1346C9F8040024
:100EC00047F8383008238BF800309BF80040E4B234
:100ED00061071BD58F4B1B78ABB18F490A7802F0A5
:100EE000FF032AB1013BDBB20B70002B00F0EF8453
:100EF0008A490A7802F0FF032AB1013BDBB20B708A
:100F0000002B00F0F78004238BF8003004F0080376
:100F100003F0FF02002B00F0D6809AF80030DBB21D
:100F20001E098DD19C08DFF8D49159F8342009EBC3
:100F3000C401C2F38302013A49680C2A7ED8DFE873
:100F400002F081817D7D7D7D7D7D477D7D7D0700FA
:100F50000868734D4A68734F734E286081B240F23F
:100F600081606A4B6A604FF0010E0022814249F8AD
:100F700034303A60C9F81020C9F8182086F800E02B
:100F80005E4C00F2F480B1F5D06F80F07883B1F55B
:100F9000817F00F0628300F28782802900F0EC827A
:100FA000822940F01E83A98801F07F01042900F204
:100FB00018835E485E4C8900084422706270027893
:100FC000930740F1798384F800E04FF0020ED8E2F5
:100FD000544F3A6842B3574B534E574918883478A8
:100FE0000D784028864645F0020828BF4FF0400E95
:100FF000002C84F001043470CEEB00000CBF882478
:10100000C82409EBC80680B285F0010544EA0E4405
:101010007260188049F8384072440D7018B9BEF1FA
:10102000400F18BF00223A603D4B1A88B2F5A06FFE
:1010300004D100219A785970404B1A70404A01231C
:1010400013703FE7364A158842F22100854200F0CE
:10105000FF812E4A49F83420F0E72C4A2C4B19F036
:10106000080F18BF134647F838302BE700F0C2FCD2
:10107000344A354952F82630002B00F0B6815868C2
:101080008C5D42F8260003F10802C9F80420032C05
:1010900005D8DFE804F0120F150204228A551A88D9
:1010A00019F0080F0CBF8823C82343EA024347F80E
:1010B000383007E702228A55F1E703228A55EEE726
:1010C00005228A55EBE7E00700F11A82210600F1BC
:1010D0004982A20706D51D4A1D4913780220DBB2BA
:1010E00013700870E30602D5194B10221A7007B06E
:1010F000BDE8F08F00F0B2FC05E700BF0080FF1FE5
:101100000C8FFF1FB88EFF1FD08FFF1FC80040003D
:1011100088004000948FFF1F1D8FFF1F9C8FFF1FB3
:10112000808FFF1FB48EFF1F1C8FFF1FC020074042
:101130008C8FFF1FC88EFF1F888FFF1F98200740CE
:1011400094200740608FFF1F988FFF1F8820074063
:101150008020074090200740AB4A47F838001378BA
:1011600001331370AEE643F82600A84D91E642F233
:101170002100814200F0358100F2AF81B1F5086FA6
:1011800000F01B82B1F5106F40F02B82226AA0495B
:10119000A8780870120600F14583D9F828209D49E7
:1011A000130600F13A83D9F830209A49150600F168
:1011B0002F83D9F838209749140600F12483D9F8F1
:1011C00040209449100600F11983D9F8482091492C
:1011D000120600F10E83D9F850208E49130600F153
:1011E0000383D9F858208B49150600F1F882D9F805
:1011F00060208849140600F12983D9F868208549C0
:10120000100600F11E83D9F870208249120600F101
:101210001383D9F878207F49130600F10883D9F8A1
:1012200080207C49150600F11C83D9F88820794973
:10123000140600F11083D9F890207649100600F1C9
:10124000C882D9F898207349120600F1BC8272480E
:10125000724A7349019073486C4D734C0497002394
:1012600005960295804617460E461D46039438683B
:1012700028B1446800F0BEFB2046002CF9D10023C1
:101280003B60029B30681A46002342F8253028B1A3
:10129000446800F0AFFB2046002CF9D100223260F8
:1012A000019A98F800301146002241F8042B039A65
:1012B0000191023B4FF0000122F81510032B09D8D1
:1012C000DFE813F04B0104004B0104004FF0010371
:1012D00088F800300135042D07F1040706F10406F3
:1012E00008F10108C3D1514C514B2278464D049F5F
:1012F000059E002129701A70130700F14F82627851
:101300004C49DFF810810A7010074FF00001C9F84E
:101310003010C9F8381000F12B824749A2780A70C2
:101320000021C9F85010C9F858101107DFF8E480FF
:1013300000F1DC81E2784149364C0A700021120745
:10134000C9F87010C9F8781000F1B98133780193A9
:10135000002183F00102C9F89010C9F8981000200C
:10136000029080468446044635490D7845F0020EC9
:1013700009EBCE030393019B002B039B5C600CBF26
:101380008824C82444EA080385F0010449F83E3063
:1013900032700C70DFF87CE02A4BDFF8A480002864
:1013A00040F02681BCF1400F1BD144F0020C09EB48
:1013B000CC03029CDFF85CE05C60002A40F02E81E8
:1013C000020442F088029DF804304EF83C200444A8
:1013D00033700D702346402803D100201A4A3B6029
:1013E00010801A4A0123137028E68B5D032B00F24C
:1013F0002D8101A252F823F0C50E0000C50E000099
:101400004F15000055150000898FFF1FB88EFF1F74
:10141000948FFF1F0080FF1F708FFF1F0C8FFF1F17
:10142000608FFF1F988FFF1FD08FFF1F5C20000071
:10143000C4200740C8200740CC200740D0200740E8
:10144000888FFF1F1C8FFF1FC88EFF1F942007402F
:10145000928892B9B14A0D784878157050708D789D
:10146000C8789570D07010680D79157186284D79FF
:1014700089795571917100F0A580A949A94E0A7822
:10148000307882F00105002842F002020D700CBF96
:101490008821C82149F8321009EBC20280F001000E
:1014A000002130705160D4E540F20232914240F0A8
:1014B0008D80A98801F07F01042900F292806A885A
:1014C000002A40F08E809848CDF804E08900084456
:1014D000017841F00201017041E742F2212081428E
:1014E0007BD1A988002940F0E480904B904A914834
:1014F000AC781D681560CDF804E00A4604702EE74C
:101500008D4B8E4886491A614FF0020E80F800E03C
:10151000854F0A708A49196099608A4E8A4D8B4CB2
:101520009A610D213970FF213170DFF840E2297096
:101530002270874D874A8EF800109F27012406F8F5
:10154000047C5D600470DA6007B0BDE8F08F0023B2
:101550008B55B7E401238B55B4E44FF0000388F8B2
:101560000030B7E67049784B80220D2008701A7061
:10157000A2077FF5B7ADAEE5774C4FF0020E2270B3
:101580006270EA88724580F0A38165490D78402A2F
:10159000944645F0020E28BF4FF0400C04EB0C03BC
:1015A00009EBCE000293012344604FEA0C48CCEBD8
:1015B000020001930022C824E4E6684A664C1278CF
:1015C0002270DEE7664A0F21117056E7B1F5A06F71
:1015D00007D1012300220193C1E642F22132914258
:1015E000F7D0514A0F231370544A0123137025E595
:1015F00040287FF6DAAE44F002040EEBC401029EEE
:101600004E60BAB19DF80410564A197033464038FE
:1016100088F8005040334EF83420DFE69DF804305F
:1016200033700204029B0D7042F0C80203444EF86E
:101630003C20D0E69DF804101970029B404A88F8BF
:101640000050403840334EF83420C7E619F0080FF8
:101650000CBF022303238B5534E4A98801F07F01DA
:101660000429BED86A88002ABBD12F48CDF804E0EF
:1016700089000844017821F0020101706FE63A4ABE
:101680005468002CADD06888B5F804E003E00C3253
:101690005468002CA5D013888342F8D15388734531
:1016A000F5D1000A03280CBF94F800E0B2F808E076
:1016B00067E7CDF804E052E64FF0020E61E700F074
:1016C00079F9002800F0F18008301D4AC4F8840040
:1016D000C4F8802000F06EF9002800F0E0800830A7
:1016E000204AC9F88C00C9F888202FE600F062F97A
:1016F000002800F0E6800830114AC8F86400C8F8F5
:10170000602000F057F9002800F0D5800830154A15
:10171000C9F86C00C9F868200CE600BFD88FFF1F1D
:10172000888FFF1F1C8FFF1FC0200740B08EFF1F38
:10173000E08FFF1FA88FFF1F0080FF1F942007402E
:1017400088004000882007408020074098200740FC
:10175000CC8EFF1F208FFF1F8C8FFF1F948FFF1FCA
:101760001D8FFF1FC8004000602000008C20074034
:1017700000F020F9002800F08C8008305D4AC8F89D
:101780004400C8F8402000F015F900287BD008304C
:10179000594AC9F84C00C9F84820BEE500F00AF9DA
:1017A00000286AD00830534AC9F82400C9F820201C
:1017B00000F000F900285AD008304F4AC9F82C0030
:1017C000C9F828209BE5D1F89C00083800F012F9F0
:1017D0003DE5D1F89400083800F00CF931E5C86D0A
:1017E000083800F007F902E5486D083800F002F902
:1017F000F7E4C86C083800F0FDF8ECE4486C0838F1
:1018000000F0F8F8E1E4C86B083800F0F3F8D6E42B
:10181000486B083800F0EEF8CBE4C86A083800F0EE
:10182000E9F8C0E4606A083800F0E4F8B5E4C86F8D
:10183000083800F0DFF8F2E4486F083800F0DAF812
:10184000E7E4C86E083800F0D5F8DCE4486E0838E4
:1018500000F0D0F8D1E4D1F88C00083800F0CAF8D4
:10186000E9E4D1F88400083800F0C4F8DDE42A780F
:10187000C9F8280001322A7041E52A78C9F8200009
:1018800001322A7094E72A78C9F8480001322A7098
:1018900043E52A78C8F8400001322A7073E72A78B5
:1018A000C9F8880001322A7050E52A78C4F880000F
:1018B00001322A700EE72A78C9F8680001322A70CE
:1018C00038E52A78C8F8600001322A7019E700BEAE
:1018D000BEF1400FF44628BF4FF0400C04EB0C0360
:1018E00002930123CCEB0E004FEA0C480022019337
:1018F0003AE500BF88004000C80040002DE9F843E9
:10190000204C00F0E9F9002204F1A00023461A60FF
:101910005A60083383424FF00001F8D11A4A1B4F36
:1019200013681B4D1B481C4EDFF87880DFF878C029
:10193000DFF87890DFF878E043F480231360C4F395
:1019400007233B70C4F307432B70240EFF2302F5DB
:1019500028320470114D88F8003011488CF800309E
:10196000D4323370012389F8003070268EF80010CD
:101970004FF40074102107F8183C2E7004601170A9
:10198000BDE8F8830080FF1F348004409C2007409E
:10199000B0200740B42007401020074049E400E091
:1019A00008E100E08020074088200740942007409D
:1019B0000021074072B60D480268B2FA82F30B2B81
:1019C00010DC4FF00041D94022EA0102026062B609
:1019D000074803EBC303DB00C2180021C1501046C7
:1019E0005160704762B60020704700BFBC89FF1F7E
:1019F000BC83FF1F0D4B0E4AC31AA2FB03231B0916
:101A00000B2B0CD80B4A127852B972B60A484FF019
:101A10000041026821FA03F31A43026062B670477C
:101A2000064A1278002AF0D0FFF75CB9BC83FF1F8A
:101A3000398EE338898FFF1FBC89FF1F948FFF1FEA
:101A4000044B054A1B6890881BB11A885B88D31A1F
:101A500018447047A48FFF1FD08FFF1F38B50E4B5F
:101A60001B7873B90D4C216861B103F0FF054B88F9
:101A70000B800420FFF79AF9256038BD084B01223E
:101A80001A7038BDFFF796FF0028F7D00146BDE871
:101A900038400420FFF78AB99D8FFF1FA08FFF1FDA
:101AA0009C8FFF1F70B5EFF3108272B60C4C20684C
:101AB00080B10C4E00254369236073B19D6102B96A
:101AC00062B6457783689847EFF3108272B6206854
:101AD0000028F0D102B962B670BD3360EFE700BFF5
:101AE000AC8FFF1FB08FFF1FFFF7DCBF024A1368E8
:101AF00001331360704700BFB08EFF1F08B5FEF7BB
:101B0000B5FCFEF7DDFC00F001F8FAE72DE9F8433B
:101B1000314E337893B1314F3A787AB90122D907EF
:101B20003A7036D49A0719D400225B073A7005D56B
:101B30002B4B1A6812B1EFF305820AB1BDE8F883A6
:101B4000EFF3108172B6186818B1264C2278002A7B
:101B50002ED00029F2D162B6BDE8F883DFF890807C
:101B600098F80020002ADFD0DFF88890002405E0F4
:101B7000013498F80030E4B2A34212D959F8245045
:101B80002B6828461B6998470028F1D02B69984795
:101B9000EEE7FFF755FFC8B9134B1B781BB9337835
:101BA000C0E73378C0E7337803F0FE033370B9E75A
:101BB00045691D60012323705DB1AA6101B962B658
:101BC00000254577836898472570B7E700F0C6F889
:101BD000E2E7064B1D60F1E7C089FF1FBD8FFF1FC5
:101BE000B88FFF1FBC8FFF1F668AFF1FB48FFF1FB8
:101BF000CC8FFF1FC08FFF1F30B42948294A2A4BC2
:101C00002A4D6024E121047011701B78284C082BA8
:101C100030D00A2B2748284937D00C2B0CBF15226F
:101C20003D2212232A60236002600B60234B24496B
:101C30001B78244ABBB101230B601360224B23495C
:101C40001B78234A012B26D9042B0FD9082B1ED928
:101C5000102B94BF862387230B6013601D4B01223A
:101C60001A7030BC70470B601360E7E784230B6089
:101C70001360F3E700F58E200F490830012213238B
:101C80002A60236002600B60D0E71922F7E7852302
:101C90000B601360E2E780230B601360DEE700BF98
:101CA0000040074001400740C189FF1F08B00340C2
:101CB0000CB0034008B00B400CB00B40BF8FFF1FAF
:101CC00020B0034020B00B40C289FF1F24B0034066
:101CD00024B00B40BE8FFF1F70B584B072B6194B95
:101CE000194D1A48702241260F2480211A702E7037
:101CF0001A460470197013781B06FCD5144B18682B
:101D000062B6144B144C984298BF00EB800001A9B6
:101D100098BF40000A2200F023F801A920460023C2
:101D200011F8012B01333AB10A2B20F8022FF7D119
:101D30001623237004B070BD5B00DBB2237004B0C7
:101D400070BD00BF000002400700024006000240D4
:101D5000080002407F969800508AFF1F704700BF1E
:101D6000F0B44D1E2E46002400E00134B0FBF2F327
:101D700002FB1300092800F130078ABF3730F8B2A0
:101D8000C0B206F8010F1846002BEED10A195370A5
:101D90004CB1107815F8016F28700133E01A8342B6
:101DA00002F80169F5DB0846F0BC704770B50F4ECC
:101DB0000F4D761BB61018BF002405D0013455F81E
:101DC000043B9847A642F9D10A4E0B4D761B00F012
:101DD00073F9B61018BF002406D0013455F8043B3F
:101DE0009847A642F9D170BD70BD00BFC420000065
:101DF000C4200000CC200000C4200000024B13B11E
:101E0000024800F005B87047000000001D1E0000E9
:101E1000002301461A46184600F014B838B5074D9D
:101E2000074C2C1BA41005D0013C55F8043D9847E5
:101E3000002CF9D1BDE8384000F048B9000000009E
:101E4000000000002DE9F047254C2568D5F84841F1
:101E50000646884692469946C4B360681F2817DC38
:101E6000431C76B104EB80050122C5F888A0D4F8A4
:101E7000881182401143022EC4F88811C5F80891D8
:101E80001ED00230636044F820800020BDE8F08757
:101E9000144B03B34FF4C870AFF300800446D0B1C5
:101EA000D5F84831002780E88800C5F84841384611
:101EB0000123C4F88871C4F88C71002EE1D0D1E7F9
:101EC000D4F88C110A43C4F88C21DAE705F5A6741E
:101ED000C5F84841C1E74FF0FF30BDE8F08700BFCB
:101EE000B4200000000000003480044040000000E6
:101EF0001211FFFFFF02020000001310FFFFFF029C
:101F0000020000001800000034800440800000003F
:101F10001EFFFFFFFF02000000001DFFFFFFFF028A
:101F20000000000019000000000000000000000098
:101F30007505000039050000ED04000035050000BE
:101F4000F1040000FD0400001D0500004008FE43F0
:101F500040A004404408FE4344A004400018FE434F
:101F600000C004403000FE43309004403400FE4383
:101F7000349004401C18FE431CC004401018FE435B
:101F800010C004400818FE4308C004400C18FE436B
:101F90000CC004400C10FE430CB004401010FE4373
:101FA00010B004401810FE4318B004401C10FE434B
:101FB0001CB004401410FE4314B004400418FE4347
:101FC00004C004400010FE4300B004400008FE437B
:101FD00000A004400408FE4304A004400C08FE4393
:101FE0000CA004400808FE4308A004401418FE4357
:101FF00014C004401818FE4318C004400410FE43E7
:1020000004B004400810FE4308B004401400FE432E
:10201000149004404C08FE434CA004400420FE43AE
:1020200004D004402410FE4324B004402010FE439A
:1020300020B004402810FE4328B004402C10FE437A
:102040002CB004400020FE4300D004404808FE436A
:1020500048A004401000FE431090044000151915DC
:1020600000010000C489FF1F1200000000020000F0
:10207000F089FF1F43000000000300004C8AFF1F8F
:102080000000000001030904D889FF1F00000000C0
:1020900002030904348AFF1F00000000030309043F
:1020A000508AFF1F00000000000000000000000038
:1020B00000000000688AFF1FF8B500BFF8BC08BC2C
:0C20C0009E467047FD1D00003504000026
:0420CC00F8B500BFA4
:1020D00038B5084B1C681C6054B1074D94FAA4F342
:1020E000B3FA83F355F823309847631E1C40F5D1AB
:1020F00038BD00BFA0D00440B489FF1F38B5084BDD
:102100001C681C6054B1074D94FAA4F3B3FA83F32E
:1021100055F823309847631E1C40F5D138BD00BFE9
:10212000A0C004409489FF1F38B5084B1C681C6090
:1021300054B1074D94FAA4F3B3FA83F355F823305E
:102140009847631E1C40F5D138BD00BFA0B00440C5
:102150006489FF1F38B5084B1C681C6054B1074DDB
:1021600094FAA4F3B3FA83F355F823309847631E27
:102170001C40F5D138BD00BFA0A004401489FF1F4A
:1021800038B5084B1C681C6054B1074D94FAA4F391
:10219000B3FA83F355F823309847631E1C40F5D1FA
:1021A00038BD00BFA0900440DC88FF1F160000006F
:1021B00006000000301F000000000000E8030000DF
:1021C0000000000000600640E81E00000000000063
:1021D00000000000000000000000000000000000FF
:1021E00000000000000000000000000000000000EF
:1021F00000000000000000000000000000000000DF
:1022000000000000000000000000000000000000CE
:1022100000000000000000000000000000000000BE
:10222000301F000000000000E80300000000000074
:1022300000700640081F00000000000000000000C1
:10224000000000000000000000000000000000008E
:10225000000000000000000000000000000000007E
:10226000000000000000000000000000000000006E
:10227000000000000000000000000000000000005E
:10228000000000000000000000000000E90800005D
:10229000E9080000E9080000E9080000E90800007A
:1022A000E9080000E9080000E9080000E90800006A
:1022B000E9080000E9080000E9080000E90800005A
:1022C000E9080000E9080000E9080000E90800004A
:1022D000E9080000E9080000E9080000E90800003A
:1022E000E9080000E9080000E9080000E90800002A
:1022F000E9080000E9080000E9080000E90800001A
:10230000E9080000E9080000E9080000E908000009
:10231000E9080000E9080000E9080000E9080000F9
:10232000E9080000E9080000E9080000E9080000E9
:10233000E9080000E9080000E9080000E9080000D9
:10234000E9080000E9080000E9080000E9080000C9
:10235000E9080000E9080000E9080000E9080000B9
:10236000E9080000E9080000E9080000FFFFFFFF9E
:10237000010A04001201100102000040C01683048B
:102380007502010203010000180354006500650096
:102390006E00730079006400750069006E006F00C4
:1023A00009024300020100C03209040000010202D8
:1023B0000100052400100105240101010424020686
:1023C00005240600010705820310004009040100EE
:1023D000020A00000007050302400000070584020E
:1023E0004000000016035500530042002000530037
:1023F00065007200690061006C00000004030904BC
:102400000C030000000000000000000000000000BD
:10241000000000000000010000000000548DFF1FBC
:10242000BC8DFF1F248EFF1F000000000000000075
:10243000000000000000000000000000000000009C
:10244000000000000000000000000000000000008C
:10245000000000000000000000000000000000007C
:10246000000000000000000000000000000000006C
:10247000000000000000000000000000000000005C
:10248000000000000000000000000000000000004C
:10249000000000000000000000000000000000003C
:1024A000000000000000000000000000000000002C
:1024B000000000000000000000000000000000001C
:1024C00001000000000000000E33CDAB34126DE6B9
:1024D000ECDE05000B000000000000000000000022
:1024E00000000000000000000000000000000000EC
:1024F00000000000000000000000000000000000DC
:1025000000000000000000000000000000000000CB
:1025100000000000000000000000000000000000BB
:00000001FF
